{"abi":[{"inputs":[{"internalType":"uint256","name":"minimum","type":"uint256"},{"internalType":"address","name":"creator","type":"address"}],"stateMutability":"nonpayable","type":"constructor"},{"inputs":[{"internalType":"uint256","name":"index","type":"uint256"}],"name":"approveRequest","outputs":[],"stateMutability":"nonpayable","type":"function"},{"inputs":[{"internalType":"address","name":"","type":"address"}],"name":"approvers","outputs":[{"internalType":"bool","name":"","type":"bool"}],"stateMutability":"view","type":"function"},{"inputs":[],"name":"approversCount","outputs":[{"internalType":"uint256","name":"","type":"uint256"}],"stateMutability":"view","type":"function"},{"inputs":[],"name":"contribute","outputs":[],"stateMutability":"payable","type":"function"},{"inputs":[{"internalType":"string","name":"description","type":"string"},{"internalType":"uint256","name":"value","type":"uint256"},{"internalType":"address","name":"recipient","type":"address"}],"name":"createRequest","outputs":[],"stateMutability":"nonpayable","type":"function"},{"inputs":[{"internalType":"uint256","name":"index","type":"uint256"}],"name":"finalizeRequest","outputs":[],"stateMutability":"nonpayable","type":"function"},{"inputs":[],"name":"getRequestsCount","outputs":[{"internalType":"uint256","name":"","type":"uint256"}],"stateMutability":"view","type":"function"},{"inputs":[],"name":"getSummery","outputs":[{"internalType":"uint256","name":"","type":"uint256"},{"internalType":"uint256","name":"","type":"uint256"},{"internalType":"uint256","name":"","type":"uint256"},{"internalType":"uint256","name":"","type":"uint256"},{"internalType":"address","name":"","type":"address"}],"stateMutability":"view","type":"function"},{"inputs":[],"name":"manager","outputs":[{"internalType":"address","name":"","type":"address"}],"stateMutability":"view","type":"function"},{"inputs":[],"name":"minimumContribution","outputs":[{"internalType":"uint256","name":"","type":"uint256"}],"stateMutability":"view","type":"function"},{"inputs":[{"internalType":"uint256","name":"","type":"uint256"}],"name":"requests","outputs":[{"internalType":"string","name":"description","type":"string"},{"internalType":"uint256","name":"value","type":"uint256"},{"internalType":"address","name":"recipient","type":"address"},{"internalType":"bool","name":"complete","type":"bool"},{"internalType":"uint256","name":"approvalCount","type":"uint256"}],"stateMutability":"view","type":"function"}],"devdoc":{"kind":"dev","methods":{},"version":1},"evm":{"assembly":"    /* \"Campaign.sol\":476:2616  contract Campaign {... */\n  mstore(0x40, 0x80)\n    /* \"Campaign.sol\":960:1076  constructor(uint minimum, address creator) {... */\n  callvalue\n  dup1\n  iszero\n  tag_1\n  jumpi\n  0x00\n  dup1\n  revert\ntag_1:\n  pop\n  mload(0x40)\n  sub(codesize, bytecodeSize)\n  dup1\n  bytecodeSize\n  dup4\n  codecopy\n  dup2\n  dup2\n  add\n  0x40\n  mstore\n  dup2\n  add\n  swap1\n  tag_2\n  swap2\n  swap1\n  tag_3\n  jump\t// in\ntag_2:\n    /* \"Campaign.sol\":1023:1030  creator */\n  dup1\n    /* \"Campaign.sol\":1013:1020  manager */\n  0x01\n  0x00\n    /* \"Campaign.sol\":1013:1030  manager = creator */\n  0x0100\n  exp\n  dup2\n  sload\n  dup2\n  0xffffffffffffffffffffffffffffffffffffffff\n  mul\n  not\n  and\n  swap1\n  dup4\n  0xffffffffffffffffffffffffffffffffffffffff\n  and\n  mul\n  or\n  swap1\n  sstore\n  pop\n    /* \"Campaign.sol\":1062:1069  minimum */\n  dup2\n    /* \"Campaign.sol\":1040:1059  minimumContribution */\n  0x02\n    /* \"Campaign.sol\":1040:1069  minimumContribution = minimum */\n  dup2\n  swap1\n  sstore\n  pop\n    /* \"Campaign.sol\":960:1076  constructor(uint minimum, address creator) {... */\n  pop\n  pop\n    /* \"Campaign.sol\":476:2616  contract Campaign {... */\n  jump(tag_6)\n    /* \"#utility.yul\":88:205   */\ntag_8:\n    /* \"#utility.yul\":197:198   */\n  0x00\n    /* \"#utility.yul\":194:195   */\n  dup1\n    /* \"#utility.yul\":187:199   */\n  revert\n    /* \"#utility.yul\":334:411   */\ntag_10:\n    /* \"#utility.yul\":371:378   */\n  0x00\n    /* \"#utility.yul\":400:405   */\n  dup2\n    /* \"#utility.yul\":389:405   */\n  swap1\n  pop\n    /* \"#utility.yul\":334:411   */\n  swap2\n  swap1\n  pop\n  jump\t// out\n    /* \"#utility.yul\":417:539   */\ntag_11:\n    /* \"#utility.yul\":490:514   */\n  tag_23\n    /* \"#utility.yul\":508:513   */\n  dup2\n    /* \"#utility.yul\":490:514   */\n  tag_10\n  jump\t// in\ntag_23:\n    /* \"#utility.yul\":483:488   */\n  dup2\n    /* \"#utility.yul\":480:515   */\n  eq\n    /* \"#utility.yul\":470:533   */\n  tag_24\n  jumpi\n    /* \"#utility.yul\":529:530   */\n  0x00\n    /* \"#utility.yul\":526:527   */\n  dup1\n    /* \"#utility.yul\":519:531   */\n  revert\n    /* \"#utility.yul\":470:533   */\ntag_24:\n    /* \"#utility.yul\":417:539   */\n  pop\n  jump\t// out\n    /* \"#utility.yul\":545:688   */\ntag_12:\n    /* \"#utility.yul\":602:607   */\n  0x00\n    /* \"#utility.yul\":633:639   */\n  dup2\n    /* \"#utility.yul\":627:640   */\n  mload\n    /* \"#utility.yul\":618:640   */\n  swap1\n  pop\n    /* \"#utility.yul\":649:682   */\n  tag_26\n    /* \"#utility.yul\":676:681   */\n  dup2\n    /* \"#utility.yul\":649:682   */\n  tag_11\n  jump\t// in\ntag_26:\n    /* \"#utility.yul\":545:688   */\n  swap3\n  swap2\n  pop\n  pop\n  jump\t// out\n    /* \"#utility.yul\":694:820   */\ntag_13:\n    /* \"#utility.yul\":731:738   */\n  0x00\n    /* \"#utility.yul\":771:813   */\n  0xffffffffffffffffffffffffffffffffffffffff\n    /* \"#utility.yul\":764:769   */\n  dup3\n    /* \"#utility.yul\":760:814   */\n  and\n    /* \"#utility.yul\":749:814   */\n  swap1\n  pop\n    /* \"#utility.yul\":694:820   */\n  swap2\n  swap1\n  pop\n  jump\t// out\n    /* \"#utility.yul\":826:922   */\ntag_14:\n    /* \"#utility.yul\":863:870   */\n  0x00\n    /* \"#utility.yul\":892:916   */\n  tag_29\n    /* \"#utility.yul\":910:915   */\n  dup3\n    /* \"#utility.yul\":892:916   */\n  tag_13\n  jump\t// in\ntag_29:\n    /* \"#utility.yul\":881:916   */\n  swap1\n  pop\n    /* \"#utility.yul\":826:922   */\n  swap2\n  swap1\n  pop\n  jump\t// out\n    /* \"#utility.yul\":928:1050   */\ntag_15:\n    /* \"#utility.yul\":1001:1025   */\n  tag_31\n    /* \"#utility.yul\":1019:1024   */\n  dup2\n    /* \"#utility.yul\":1001:1025   */\n  tag_14\n  jump\t// in\ntag_31:\n    /* \"#utility.yul\":994:999   */\n  dup2\n    /* \"#utility.yul\":991:1026   */\n  eq\n    /* \"#utility.yul\":981:1044   */\n  tag_32\n  jumpi\n    /* \"#utility.yul\":1040:1041   */\n  0x00\n    /* \"#utility.yul\":1037:1038   */\n  dup1\n    /* \"#utility.yul\":1030:1042   */\n  revert\n    /* \"#utility.yul\":981:1044   */\ntag_32:\n    /* \"#utility.yul\":928:1050   */\n  pop\n  jump\t// out\n    /* \"#utility.yul\":1056:1199   */\ntag_16:\n    /* \"#utility.yul\":1113:1118   */\n  0x00\n    /* \"#utility.yul\":1144:1150   */\n  dup2\n    /* \"#utility.yul\":1138:1151   */\n  mload\n    /* \"#utility.yul\":1129:1151   */\n  swap1\n  pop\n    /* \"#utility.yul\":1160:1193   */\n  tag_34\n    /* \"#utility.yul\":1187:1192   */\n  dup2\n    /* \"#utility.yul\":1160:1193   */\n  tag_15\n  jump\t// in\ntag_34:\n    /* \"#utility.yul\":1056:1199   */\n  swap3\n  swap2\n  pop\n  pop\n  jump\t// out\n    /* \"#utility.yul\":1205:1712   */\ntag_3:\n    /* \"#utility.yul\":1284:1290   */\n  0x00\n    /* \"#utility.yul\":1292:1298   */\n  dup1\n    /* \"#utility.yul\":1341:1343   */\n  0x40\n    /* \"#utility.yul\":1329:1338   */\n  dup4\n    /* \"#utility.yul\":1320:1327   */\n  dup6\n    /* \"#utility.yul\":1316:1339   */\n  sub\n    /* \"#utility.yul\":1312:1344   */\n  slt\n    /* \"#utility.yul\":1309:1428   */\n  iszero\n  tag_36\n  jumpi\n    /* \"#utility.yul\":1347:1426   */\n  tag_37\n  tag_8\n  jump\t// in\ntag_37:\n    /* \"#utility.yul\":1309:1428   */\ntag_36:\n    /* \"#utility.yul\":1467:1468   */\n  0x00\n    /* \"#utility.yul\":1492:1556   */\n  tag_38\n    /* \"#utility.yul\":1548:1555   */\n  dup6\n    /* \"#utility.yul\":1539:1545   */\n  dup3\n    /* \"#utility.yul\":1528:1537   */\n  dup7\n    /* \"#utility.yul\":1524:1546   */\n  add\n    /* \"#utility.yul\":1492:1556   */\n  tag_12\n  jump\t// in\ntag_38:\n    /* \"#utility.yul\":1482:1556   */\n  swap3\n  pop\n    /* \"#utility.yul\":1438:1566   */\n  pop\n    /* \"#utility.yul\":1605:1607   */\n  0x20\n    /* \"#utility.yul\":1631:1695   */\n  tag_39\n    /* \"#utility.yul\":1687:1694   */\n  dup6\n    /* \"#utility.yul\":1678:1684   */\n  dup3\n    /* \"#utility.yul\":1667:1676   */\n  dup7\n    /* \"#utility.yul\":1663:1685   */\n  add\n    /* \"#utility.yul\":1631:1695   */\n  tag_16\n  jump\t// in\ntag_39:\n    /* \"#utility.yul\":1621:1695   */\n  swap2\n  pop\n    /* \"#utility.yul\":1576:1705   */\n  pop\n    /* \"#utility.yul\":1205:1712   */\n  swap3\n  pop\n  swap3\n  swap1\n  pop\n  jump\t// out\n    /* \"Campaign.sol\":476:2616  contract Campaign {... */\ntag_6:\n  dataSize(sub_0)\n  dup1\n  dataOffset(sub_0)\n  0x00\n  codecopy\n  0x00\n  return\nstop\n\nsub_0: assembly {\n        /* \"Campaign.sol\":476:2616  contract Campaign {... */\n      mstore(0x40, 0x80)\n      jumpi(tag_1, lt(calldatasize, 0x04))\n      shr(0xe0, calldataload(0x00))\n      dup1\n      0x82fde093\n      gt\n      tag_13\n      jumpi\n      dup1\n      0x82fde093\n      eq\n      tag_7\n      jumpi\n      dup1\n      0x8a9cfd55\n      eq\n      tag_8\n      jumpi\n      dup1\n      0x937e09b1\n      eq\n      tag_9\n      jumpi\n      dup1\n      0xd7bb99ba\n      eq\n      tag_10\n      jumpi\n      dup1\n      0xd7d1bbdb\n      eq\n      tag_11\n      jumpi\n      dup1\n      0xf146b3d0\n      eq\n      tag_12\n      jumpi\n      jump(tag_1)\n    tag_13:\n      dup1\n      0x03441006\n      eq\n      tag_2\n      jumpi\n      dup1\n      0x0a144391\n      eq\n      tag_3\n      jumpi\n      dup1\n      0x3410452a\n      eq\n      tag_4\n      jumpi\n      dup1\n      0x481c6a75\n      eq\n      tag_5\n      jumpi\n      dup1\n      0x81d12c58\n      eq\n      tag_6\n      jumpi\n    tag_1:\n      0x00\n      dup1\n      revert\n        /* \"Campaign.sol\":1917:2224  function finalizeRequest(uint index) public restricted {... */\n    tag_2:\n      callvalue\n      dup1\n      iszero\n      tag_14\n      jumpi\n      0x00\n      dup1\n      revert\n    tag_14:\n      pop\n      tag_15\n      0x04\n      dup1\n      calldatasize\n      sub\n      dup2\n      add\n      swap1\n      tag_16\n      swap2\n      swap1\n      tag_17\n      jump\t// in\n    tag_16:\n      tag_18\n      jump\t// in\n    tag_15:\n      stop\n        /* \"Campaign.sol\":794:835  mapping(address => bool) public approvers */\n    tag_3:\n      callvalue\n      dup1\n      iszero\n      tag_19\n      jumpi\n      0x00\n      dup1\n      revert\n    tag_19:\n      pop\n      tag_20\n      0x04\n      dup1\n      calldatasize\n      sub\n      dup2\n      add\n      swap1\n      tag_21\n      swap2\n      swap1\n      tag_22\n      jump\t// in\n    tag_21:\n      tag_23\n      jump\t// in\n    tag_20:\n      mload(0x40)\n      tag_24\n      swap2\n      swap1\n      tag_25\n      jump\t// in\n    tag_24:\n      mload(0x40)\n      dup1\n      swap2\n      sub\n      swap1\n      return\n        /* \"Campaign.sol\":2520:2614  function getRequestsCount() public view returns (uint) {... */\n    tag_4:\n      callvalue\n      dup1\n      iszero\n      tag_26\n      jumpi\n      0x00\n      dup1\n      revert\n    tag_26:\n      pop\n      tag_27\n      tag_28\n      jump\t// in\n    tag_27:\n      mload(0x40)\n      tag_29\n      swap2\n      swap1\n      tag_30\n      jump\t// in\n    tag_29:\n      mload(0x40)\n      dup1\n      swap2\n      sub\n      swap1\n      return\n        /* \"Campaign.sol\":729:751  address public manager */\n    tag_5:\n      callvalue\n      dup1\n      iszero\n      tag_31\n      jumpi\n      0x00\n      dup1\n      revert\n    tag_31:\n      pop\n      tag_32\n      tag_33\n      jump\t// in\n    tag_32:\n      mload(0x40)\n      tag_34\n      swap2\n      swap1\n      tag_35\n      jump\t// in\n    tag_34:\n      mload(0x40)\n      dup1\n      swap2\n      sub\n      swap1\n      return\n        /* \"Campaign.sol\":698:723  Request[] public requests */\n    tag_6:\n      callvalue\n      dup1\n      iszero\n      tag_36\n      jumpi\n      0x00\n      dup1\n      revert\n    tag_36:\n      pop\n      tag_37\n      0x04\n      dup1\n      calldatasize\n      sub\n      dup2\n      add\n      swap1\n      tag_38\n      swap2\n      swap1\n      tag_17\n      jump\t// in\n    tag_38:\n      tag_39\n      jump\t// in\n    tag_37:\n      mload(0x40)\n      tag_40\n      swap6\n      swap5\n      swap4\n      swap3\n      swap2\n      swap1\n      tag_41\n      jump\t// in\n    tag_40:\n      mload(0x40)\n      dup1\n      swap2\n      sub\n      swap1\n      return\n        /* \"Campaign.sol\":841:867  uint public approversCount */\n    tag_7:\n      callvalue\n      dup1\n      iszero\n      tag_42\n      jumpi\n      0x00\n      dup1\n      revert\n    tag_42:\n      pop\n      tag_43\n      tag_44\n      jump\t// in\n    tag_43:\n      mload(0x40)\n      tag_45\n      swap2\n      swap1\n      tag_30\n      jump\t// in\n    tag_45:\n      mload(0x40)\n      dup1\n      swap2\n      sub\n      swap1\n      return\n        /* \"Campaign.sol\":1247:1634  function createRequest(... */\n    tag_8:\n      callvalue\n      dup1\n      iszero\n      tag_46\n      jumpi\n      0x00\n      dup1\n      revert\n    tag_46:\n      pop\n      tag_47\n      0x04\n      dup1\n      calldatasize\n      sub\n      dup2\n      add\n      swap1\n      tag_48\n      swap2\n      swap1\n      tag_49\n      jump\t// in\n    tag_48:\n      tag_50\n      jump\t// in\n    tag_47:\n      stop\n        /* \"Campaign.sol\":757:788  uint public minimumContribution */\n    tag_9:\n      callvalue\n      dup1\n      iszero\n      tag_51\n      jumpi\n      0x00\n      dup1\n      revert\n    tag_51:\n      pop\n      tag_52\n      tag_53\n      jump\t// in\n    tag_52:\n      mload(0x40)\n      tag_54\n      swap2\n      swap1\n      tag_30\n      jump\t// in\n    tag_54:\n      mload(0x40)\n      dup1\n      swap2\n      sub\n      swap1\n      return\n        /* \"Campaign.sol\":1082:1241  function contribute() public payable {... */\n    tag_10:\n      tag_55\n      tag_56\n      jump\t// in\n    tag_55:\n      stop\n        /* \"Campaign.sol\":1640:1911  function approveRequest(uint index) public {... */\n    tag_11:\n      callvalue\n      dup1\n      iszero\n      tag_57\n      jumpi\n      0x00\n      dup1\n      revert\n    tag_57:\n      pop\n      tag_58\n      0x04\n      dup1\n      calldatasize\n      sub\n      dup2\n      add\n      swap1\n      tag_59\n      swap2\n      swap1\n      tag_17\n      jump\t// in\n    tag_59:\n      tag_60\n      jump\t// in\n    tag_58:\n      stop\n        /* \"Campaign.sol\":2230:2514  function getSummery()... */\n    tag_12:\n      callvalue\n      dup1\n      iszero\n      tag_61\n      jumpi\n      0x00\n      dup1\n      revert\n    tag_61:\n      pop\n      tag_62\n      tag_63\n      jump\t// in\n    tag_62:\n      mload(0x40)\n      tag_64\n      swap6\n      swap5\n      swap4\n      swap3\n      swap2\n      swap1\n      tag_65\n      jump\t// in\n    tag_64:\n      mload(0x40)\n      dup1\n      swap2\n      sub\n      swap1\n      return\n        /* \"Campaign.sol\":1917:2224  function finalizeRequest(uint index) public restricted {... */\n    tag_18:\n        /* \"Campaign.sol\":928:935  manager */\n      0x01\n      0x00\n      swap1\n      sload\n      swap1\n      0x0100\n      exp\n      swap1\n      div\n      0xffffffffffffffffffffffffffffffffffffffff\n      and\n        /* \"Campaign.sol\":914:935  msg.sender == manager */\n      0xffffffffffffffffffffffffffffffffffffffff\n      and\n        /* \"Campaign.sol\":914:924  msg.sender */\n      caller\n        /* \"Campaign.sol\":914:935  msg.sender == manager */\n      0xffffffffffffffffffffffffffffffffffffffff\n      and\n      eq\n        /* \"Campaign.sol\":906:936  require(msg.sender == manager) */\n      tag_67\n      jumpi\n      0x00\n      dup1\n      revert\n    tag_67:\n        /* \"Campaign.sol\":1982:2005  Request storage request */\n      0x00\n        /* \"Campaign.sol\":2008:2016  requests */\n      dup1\n        /* \"Campaign.sol\":2017:2022  index */\n      dup3\n        /* \"Campaign.sol\":2008:2023  requests[index] */\n      dup2\n      sload\n      dup2\n      lt\n      tag_69\n      jumpi\n      tag_70\n      tag_71\n      jump\t// in\n    tag_70:\n    tag_69:\n      swap1\n      0x00\n      mstore\n      keccak256(0x00, 0x20)\n      swap1\n      0x05\n      mul\n      add\n        /* \"Campaign.sol\":1982:2023  Request storage request = requests[index] */\n      swap1\n      pop\n        /* \"Campaign.sol\":2084:2085  2 */\n      0x02\n        /* \"Campaign.sol\":2067:2081  approversCount */\n      sload(0x04)\n        /* \"Campaign.sol\":2067:2085  approversCount / 2 */\n      tag_73\n      swap2\n      swap1\n      tag_74\n      jump\t// in\n    tag_73:\n        /* \"Campaign.sol\":2042:2049  request */\n      dup2\n        /* \"Campaign.sol\":2042:2063  request.approvalCount */\n      0x03\n      add\n      sload\n        /* \"Campaign.sol\":2042:2086  request.approvalCount > (approversCount / 2) */\n      gt\n        /* \"Campaign.sol\":2034:2087  require(request.approvalCount > (approversCount / 2)) */\n      tag_75\n      jumpi\n      0x00\n      dup1\n      revert\n    tag_75:\n        /* \"Campaign.sol\":2106:2113  request */\n      dup1\n        /* \"Campaign.sol\":2106:2122  request.complete */\n      0x02\n      add\n      0x14\n      swap1\n      sload\n      swap1\n      0x0100\n      exp\n      swap1\n      div\n      0xff\n      and\n        /* \"Campaign.sol\":2105:2122  !request.complete */\n      iszero\n        /* \"Campaign.sol\":2097:2123  require(!request.complete) */\n      tag_76\n      jumpi\n      0x00\n      dup1\n      revert\n    tag_76:\n        /* \"Campaign.sol\":2142:2149  request */\n      dup1\n        /* \"Campaign.sol\":2142:2159  request.recipient */\n      0x02\n      add\n      0x00\n      swap1\n      sload\n      swap1\n      0x0100\n      exp\n      swap1\n      div\n      0xffffffffffffffffffffffffffffffffffffffff\n      and\n        /* \"Campaign.sol\":2134:2169  payable(request.recipient).transfer */\n      0xffffffffffffffffffffffffffffffffffffffff\n      and\n        /* \"Campaign.sol\":2134:2184  payable(request.recipient).transfer(request.value) */\n      0x08fc\n        /* \"Campaign.sol\":2170:2177  request */\n      dup3\n        /* \"Campaign.sol\":2170:2183  request.value */\n      0x01\n      add\n      sload\n        /* \"Campaign.sol\":2134:2184  payable(request.recipient).transfer(request.value) */\n      swap1\n      dup2\n      iszero\n      mul\n      swap1\n      mload(0x40)\n      0x00\n      mload(0x40)\n      dup1\n      dup4\n      sub\n      dup2\n      dup6\n      dup9\n      dup9\n      call\n      swap4\n      pop\n      pop\n      pop\n      pop\n      iszero\n      dup1\n      iszero\n      tag_78\n      jumpi\n      returndatasize\n      0x00\n      dup1\n      returndatacopy\n      revert(0x00, returndatasize)\n    tag_78:\n      pop\n        /* \"Campaign.sol\":2213:2217  true */\n      0x01\n        /* \"Campaign.sol\":2194:2201  request */\n      dup2\n        /* \"Campaign.sol\":2194:2210  request.complete */\n      0x02\n      add\n      0x14\n        /* \"Campaign.sol\":2194:2217  request.complete = true */\n      0x0100\n      exp\n      dup2\n      sload\n      dup2\n      0xff\n      mul\n      not\n      and\n      swap1\n      dup4\n      iszero\n      iszero\n      mul\n      or\n      swap1\n      sstore\n      pop\n        /* \"Campaign.sol\":1972:2224  {... */\n      pop\n        /* \"Campaign.sol\":1917:2224  function finalizeRequest(uint index) public restricted {... */\n      pop\n      jump\t// out\n        /* \"Campaign.sol\":794:835  mapping(address => bool) public approvers */\n    tag_23:\n      mstore(0x20, 0x03)\n      dup1\n      0x00\n      mstore\n      keccak256(0x00, 0x40)\n      0x00\n      swap2\n      pop\n      sload\n      swap1\n      0x0100\n      exp\n      swap1\n      div\n      0xff\n      and\n      dup2\n      jump\t// out\n        /* \"Campaign.sol\":2520:2614  function getRequestsCount() public view returns (uint) {... */\n    tag_28:\n        /* \"Campaign.sol\":2569:2573  uint */\n      0x00\n        /* \"Campaign.sol\":2592:2600  requests */\n      dup1\n        /* \"Campaign.sol\":2592:2607  requests.length */\n      dup1\n      sload\n      swap1\n      pop\n        /* \"Campaign.sol\":2585:2607  return requests.length */\n      swap1\n      pop\n        /* \"Campaign.sol\":2520:2614  function getRequestsCount() public view returns (uint) {... */\n      swap1\n      jump\t// out\n        /* \"Campaign.sol\":729:751  address public manager */\n    tag_33:\n      0x01\n      0x00\n      swap1\n      sload\n      swap1\n      0x0100\n      exp\n      swap1\n      div\n      0xffffffffffffffffffffffffffffffffffffffff\n      and\n      dup2\n      jump\t// out\n        /* \"Campaign.sol\":698:723  Request[] public requests */\n    tag_39:\n      0x00\n      dup2\n      dup2\n      sload\n      dup2\n      lt\n      tag_80\n      jumpi\n      0x00\n      dup1\n      revert\n    tag_80:\n      swap1\n      0x00\n      mstore\n      keccak256(0x00, 0x20)\n      swap1\n      0x05\n      mul\n      add\n      0x00\n      swap2\n      pop\n      swap1\n      pop\n      dup1\n      0x00\n      add\n      dup1\n      sload\n      tag_82\n      swap1\n      tag_83\n      jump\t// in\n    tag_82:\n      dup1\n      0x1f\n      add\n      0x20\n      dup1\n      swap2\n      div\n      mul\n      0x20\n      add\n      mload(0x40)\n      swap1\n      dup2\n      add\n      0x40\n      mstore\n      dup1\n      swap3\n      swap2\n      swap1\n      dup2\n      dup2\n      mstore\n      0x20\n      add\n      dup3\n      dup1\n      sload\n      tag_84\n      swap1\n      tag_83\n      jump\t// in\n    tag_84:\n      dup1\n      iszero\n      tag_85\n      jumpi\n      dup1\n      0x1f\n      lt\n      tag_86\n      jumpi\n      0x0100\n      dup1\n      dup4\n      sload\n      div\n      mul\n      dup4\n      mstore\n      swap2\n      0x20\n      add\n      swap2\n      jump(tag_85)\n    tag_86:\n      dup3\n      add\n      swap2\n      swap1\n      0x00\n      mstore\n      keccak256(0x00, 0x20)\n      swap1\n    tag_87:\n      dup2\n      sload\n      dup2\n      mstore\n      swap1\n      0x01\n      add\n      swap1\n      0x20\n      add\n      dup1\n      dup4\n      gt\n      tag_87\n      jumpi\n      dup3\n      swap1\n      sub\n      0x1f\n      and\n      dup3\n      add\n      swap2\n    tag_85:\n      pop\n      pop\n      pop\n      pop\n      pop\n      swap1\n      dup1\n      0x01\n      add\n      sload\n      swap1\n      dup1\n      0x02\n      add\n      0x00\n      swap1\n      sload\n      swap1\n      0x0100\n      exp\n      swap1\n      div\n      0xffffffffffffffffffffffffffffffffffffffff\n      and\n      swap1\n      dup1\n      0x02\n      add\n      0x14\n      swap1\n      sload\n      swap1\n      0x0100\n      exp\n      swap1\n      div\n      0xff\n      and\n      swap1\n      dup1\n      0x03\n      add\n      sload\n      swap1\n      pop\n      dup6\n      jump\t// out\n        /* \"Campaign.sol\":841:867  uint public approversCount */\n    tag_44:\n      sload(0x04)\n      dup2\n      jump\t// out\n        /* \"Campaign.sol\":1247:1634  function createRequest(... */\n    tag_50:\n        /* \"Campaign.sol\":928:935  manager */\n      0x01\n      0x00\n      swap1\n      sload\n      swap1\n      0x0100\n      exp\n      swap1\n      div\n      0xffffffffffffffffffffffffffffffffffffffff\n      and\n        /* \"Campaign.sol\":914:935  msg.sender == manager */\n      0xffffffffffffffffffffffffffffffffffffffff\n      and\n        /* \"Campaign.sol\":914:924  msg.sender */\n      caller\n        /* \"Campaign.sol\":914:935  msg.sender == manager */\n      0xffffffffffffffffffffffffffffffffffffffff\n      and\n      eq\n        /* \"Campaign.sol\":906:936  require(msg.sender == manager) */\n      tag_89\n      jumpi\n      0x00\n      dup1\n      revert\n    tag_89:\n        /* \"Campaign.sol\":1386:1412  Request storage newRequest */\n      0x00\n        /* \"Campaign.sol\":1415:1423  requests */\n      dup1\n        /* \"Campaign.sol\":1415:1430  requests.push() */\n      0x01\n      dup2\n      0x01\n      dup2\n      sload\n      add\n      dup1\n      dup3\n      sstore\n      dup1\n      swap2\n      pop\n      pop\n      sub\n      swap1\n      0x00\n      mstore\n      keccak256(0x00, 0x20)\n      swap1\n      0x05\n      mul\n      add\n        /* \"Campaign.sol\":1386:1430  Request storage newRequest = requests.push() */\n      swap1\n      pop\n        /* \"Campaign.sol\":1465:1476  description */\n      dup4\n        /* \"Campaign.sol\":1440:1450  newRequest */\n      dup2\n        /* \"Campaign.sol\":1440:1462  newRequest.description */\n      0x00\n      add\n        /* \"Campaign.sol\":1440:1476  newRequest.description = description */\n      swap1\n      dup2\n      tag_92\n      swap2\n      swap1\n      tag_93\n      jump\t// in\n    tag_92:\n      pop\n        /* \"Campaign.sol\":1505:1510  value */\n      dup3\n        /* \"Campaign.sol\":1486:1496  newRequest */\n      dup2\n        /* \"Campaign.sol\":1486:1502  newRequest.value */\n      0x01\n      add\n        /* \"Campaign.sol\":1486:1510  newRequest.value = value */\n      dup2\n      swap1\n      sstore\n      pop\n        /* \"Campaign.sol\":1543:1552  recipient */\n      dup2\n        /* \"Campaign.sol\":1520:1530  newRequest */\n      dup2\n        /* \"Campaign.sol\":1520:1540  newRequest.recipient */\n      0x02\n      add\n      0x00\n        /* \"Campaign.sol\":1520:1552  newRequest.recipient = recipient */\n      0x0100\n      exp\n      dup2\n      sload\n      dup2\n      0xffffffffffffffffffffffffffffffffffffffff\n      mul\n      not\n      and\n      swap1\n      dup4\n      0xffffffffffffffffffffffffffffffffffffffff\n      and\n      mul\n      or\n      swap1\n      sstore\n      pop\n        /* \"Campaign.sol\":1584:1589  false */\n      0x00\n        /* \"Campaign.sol\":1562:1572  newRequest */\n      dup2\n        /* \"Campaign.sol\":1562:1581  newRequest.complete */\n      0x02\n      add\n      0x14\n        /* \"Campaign.sol\":1562:1589  newRequest.complete = false */\n      0x0100\n      exp\n      dup2\n      sload\n      dup2\n      0xff\n      mul\n      not\n      and\n      swap1\n      dup4\n      iszero\n      iszero\n      mul\n      or\n      swap1\n      sstore\n      pop\n        /* \"Campaign.sol\":1626:1627  0 */\n      0x00\n        /* \"Campaign.sol\":1599:1609  newRequest */\n      dup2\n        /* \"Campaign.sol\":1599:1623  newRequest.approvalCount */\n      0x03\n      add\n        /* \"Campaign.sol\":1599:1627  newRequest.approvalCount = 0 */\n      dup2\n      swap1\n      sstore\n      pop\n        /* \"Campaign.sol\":1376:1634  {... */\n      pop\n        /* \"Campaign.sol\":1247:1634  function createRequest(... */\n      pop\n      pop\n      pop\n      jump\t// out\n        /* \"Campaign.sol\":757:788  uint public minimumContribution */\n    tag_53:\n      sload(0x02)\n      dup2\n      jump\t// out\n        /* \"Campaign.sol\":1082:1241  function contribute() public payable {... */\n    tag_56:\n        /* \"Campaign.sol\":1149:1168  minimumContribution */\n      sload(0x02)\n        /* \"Campaign.sol\":1137:1146  msg.value */\n      callvalue\n        /* \"Campaign.sol\":1137:1168  msg.value > minimumContribution */\n      gt\n        /* \"Campaign.sol\":1129:1169  require(msg.value > minimumContribution) */\n      tag_95\n      jumpi\n      0x00\n      dup1\n      revert\n    tag_95:\n        /* \"Campaign.sol\":1204:1208  true */\n      0x01\n        /* \"Campaign.sol\":1180:1189  approvers */\n      0x03\n        /* \"Campaign.sol\":1180:1201  approvers[msg.sender] */\n      0x00\n        /* \"Campaign.sol\":1190:1200  msg.sender */\n      caller\n        /* \"Campaign.sol\":1180:1201  approvers[msg.sender] */\n      0xffffffffffffffffffffffffffffffffffffffff\n      and\n      0xffffffffffffffffffffffffffffffffffffffff\n      and\n      dup2\n      mstore\n      0x20\n      add\n      swap1\n      dup2\n      mstore\n      0x20\n      add\n      0x00\n      keccak256\n      0x00\n        /* \"Campaign.sol\":1180:1208  approvers[msg.sender] = true */\n      0x0100\n      exp\n      dup2\n      sload\n      dup2\n      0xff\n      mul\n      not\n      and\n      swap1\n      dup4\n      iszero\n      iszero\n      mul\n      or\n      swap1\n      sstore\n      pop\n        /* \"Campaign.sol\":1218:1232  approversCount */\n      0x04\n      0x00\n        /* \"Campaign.sol\":1218:1234  approversCount++ */\n      dup2\n      sload\n      dup1\n      swap3\n      swap2\n      swap1\n      tag_96\n      swap1\n      tag_97\n      jump\t// in\n    tag_96:\n      swap2\n      swap1\n      pop\n      sstore\n      pop\n        /* \"Campaign.sol\":1082:1241  function contribute() public payable {... */\n      jump\t// out\n        /* \"Campaign.sol\":1640:1911  function approveRequest(uint index) public {... */\n    tag_60:\n        /* \"Campaign.sol\":1693:1716  Request storage request */\n      0x00\n        /* \"Campaign.sol\":1719:1727  requests */\n      dup1\n        /* \"Campaign.sol\":1728:1733  index */\n      dup3\n        /* \"Campaign.sol\":1719:1734  requests[index] */\n      dup2\n      sload\n      dup2\n      lt\n      tag_99\n      jumpi\n      tag_100\n      tag_71\n      jump\t// in\n    tag_100:\n    tag_99:\n      swap1\n      0x00\n      mstore\n      keccak256(0x00, 0x20)\n      swap1\n      0x05\n      mul\n      add\n        /* \"Campaign.sol\":1693:1734  Request storage request = requests[index] */\n      swap1\n      pop\n        /* \"Campaign.sol\":1753:1762  approvers */\n      0x03\n        /* \"Campaign.sol\":1753:1774  approvers[msg.sender] */\n      0x00\n        /* \"Campaign.sol\":1763:1773  msg.sender */\n      caller\n        /* \"Campaign.sol\":1753:1774  approvers[msg.sender] */\n      0xffffffffffffffffffffffffffffffffffffffff\n      and\n      0xffffffffffffffffffffffffffffffffffffffff\n      and\n      dup2\n      mstore\n      0x20\n      add\n      swap1\n      dup2\n      mstore\n      0x20\n      add\n      0x00\n      keccak256\n      0x00\n      swap1\n      sload\n      swap1\n      0x0100\n      exp\n      swap1\n      div\n      0xff\n      and\n        /* \"Campaign.sol\":1745:1775  require(approvers[msg.sender]) */\n      tag_102\n      jumpi\n      0x00\n      dup1\n      revert\n    tag_102:\n        /* \"Campaign.sol\":1794:1801  request */\n      dup1\n        /* \"Campaign.sol\":1794:1811  request.approvals */\n      0x04\n      add\n        /* \"Campaign.sol\":1794:1823  request.approvals[msg.sender] */\n      0x00\n        /* \"Campaign.sol\":1812:1822  msg.sender */\n      caller\n        /* \"Campaign.sol\":1794:1823  request.approvals[msg.sender] */\n      0xffffffffffffffffffffffffffffffffffffffff\n      and\n      0xffffffffffffffffffffffffffffffffffffffff\n      and\n      dup2\n      mstore\n      0x20\n      add\n      swap1\n      dup2\n      mstore\n      0x20\n      add\n      0x00\n      keccak256\n      0x00\n      swap1\n      sload\n      swap1\n      0x0100\n      exp\n      swap1\n      div\n      0xff\n      and\n        /* \"Campaign.sol\":1793:1823  !request.approvals[msg.sender] */\n      iszero\n        /* \"Campaign.sol\":1785:1824  require(!request.approvals[msg.sender]) */\n      tag_103\n      jumpi\n      0x00\n      dup1\n      revert\n    tag_103:\n        /* \"Campaign.sol\":1867:1871  true */\n      0x01\n        /* \"Campaign.sol\":1835:1842  request */\n      dup2\n        /* \"Campaign.sol\":1835:1852  request.approvals */\n      0x04\n      add\n        /* \"Campaign.sol\":1835:1864  request.approvals[msg.sender] */\n      0x00\n        /* \"Campaign.sol\":1853:1863  msg.sender */\n      caller\n        /* \"Campaign.sol\":1835:1864  request.approvals[msg.sender] */\n      0xffffffffffffffffffffffffffffffffffffffff\n      and\n      0xffffffffffffffffffffffffffffffffffffffff\n      and\n      dup2\n      mstore\n      0x20\n      add\n      swap1\n      dup2\n      mstore\n      0x20\n      add\n      0x00\n      keccak256\n      0x00\n        /* \"Campaign.sol\":1835:1871  request.approvals[msg.sender] = true */\n      0x0100\n      exp\n      dup2\n      sload\n      dup2\n      0xff\n      mul\n      not\n      and\n      swap1\n      dup4\n      iszero\n      iszero\n      mul\n      or\n      swap1\n      sstore\n      pop\n        /* \"Campaign.sol\":1881:1888  request */\n      dup1\n        /* \"Campaign.sol\":1881:1902  request.approvalCount */\n      0x03\n      add\n      0x00\n        /* \"Campaign.sol\":1881:1904  request.approvalCount++ */\n      dup2\n      sload\n      dup1\n      swap3\n      swap2\n      swap1\n      tag_104\n      swap1\n      tag_97\n      jump\t// in\n    tag_104:\n      swap2\n      swap1\n      pop\n      sstore\n      pop\n        /* \"Campaign.sol\":1683:1911  {... */\n      pop\n        /* \"Campaign.sol\":1640:1911  function approveRequest(uint index) public {... */\n      pop\n      jump\t// out\n        /* \"Campaign.sol\":2230:2514  function getSummery()... */\n    tag_63:\n        /* \"Campaign.sol\":2297:2301  uint */\n      0x00\n        /* \"Campaign.sol\":2303:2307  uint */\n      dup1\n        /* \"Campaign.sol\":2309:2313  uint */\n      0x00\n        /* \"Campaign.sol\":2315:2319  uint */\n      dup1\n        /* \"Campaign.sol\":2321:2328  address */\n      0x00\n        /* \"Campaign.sol\":2365:2384  minimumContribution */\n      sload(0x02)\n        /* \"Campaign.sol\":2398:2419  address(this).balance */\n      selfbalance\n        /* \"Campaign.sol\":2433:2441  requests */\n      0x00\n        /* \"Campaign.sol\":2433:2448  requests.length */\n      dup1\n      sload\n      swap1\n      pop\n        /* \"Campaign.sol\":2462:2476  approversCount */\n      sload(0x04)\n        /* \"Campaign.sol\":2490:2497  manager */\n      0x01\n      0x00\n      swap1\n      sload\n      swap1\n      0x0100\n      exp\n      swap1\n      div\n      0xffffffffffffffffffffffffffffffffffffffff\n      and\n        /* \"Campaign.sol\":2344:2507  return (... */\n      swap5\n      pop\n      swap5\n      pop\n      swap5\n      pop\n      swap5\n      pop\n      swap5\n      pop\n        /* \"Campaign.sol\":2230:2514  function getSummery()... */\n      swap1\n      swap2\n      swap3\n      swap4\n      swap5\n      jump\t// out\n        /* \"#utility.yul\":7:82   */\n    tag_106:\n        /* \"#utility.yul\":40:46   */\n      0x00\n        /* \"#utility.yul\":73:75   */\n      0x40\n        /* \"#utility.yul\":67:76   */\n      mload\n        /* \"#utility.yul\":57:76   */\n      swap1\n      pop\n        /* \"#utility.yul\":7:82   */\n      swap1\n      jump\t// out\n        /* \"#utility.yul\":88:205   */\n    tag_107:\n        /* \"#utility.yul\":197:198   */\n      0x00\n        /* \"#utility.yul\":194:195   */\n      dup1\n        /* \"#utility.yul\":187:199   */\n      revert\n        /* \"#utility.yul\":211:328   */\n    tag_108:\n        /* \"#utility.yul\":320:321   */\n      0x00\n        /* \"#utility.yul\":317:318   */\n      dup1\n        /* \"#utility.yul\":310:322   */\n      revert\n        /* \"#utility.yul\":334:411   */\n    tag_109:\n        /* \"#utility.yul\":371:378   */\n      0x00\n        /* \"#utility.yul\":400:405   */\n      dup2\n        /* \"#utility.yul\":389:405   */\n      swap1\n      pop\n        /* \"#utility.yul\":334:411   */\n      swap2\n      swap1\n      pop\n      jump\t// out\n        /* \"#utility.yul\":417:539   */\n    tag_110:\n        /* \"#utility.yul\":490:514   */\n      tag_158\n        /* \"#utility.yul\":508:513   */\n      dup2\n        /* \"#utility.yul\":490:514   */\n      tag_109\n      jump\t// in\n    tag_158:\n        /* \"#utility.yul\":483:488   */\n      dup2\n        /* \"#utility.yul\":480:515   */\n      eq\n        /* \"#utility.yul\":470:533   */\n      tag_159\n      jumpi\n        /* \"#utility.yul\":529:530   */\n      0x00\n        /* \"#utility.yul\":526:527   */\n      dup1\n        /* \"#utility.yul\":519:531   */\n      revert\n        /* \"#utility.yul\":470:533   */\n    tag_159:\n        /* \"#utility.yul\":417:539   */\n      pop\n      jump\t// out\n        /* \"#utility.yul\":545:684   */\n    tag_111:\n        /* \"#utility.yul\":591:596   */\n      0x00\n        /* \"#utility.yul\":629:635   */\n      dup2\n        /* \"#utility.yul\":616:636   */\n      calldataload\n        /* \"#utility.yul\":607:636   */\n      swap1\n      pop\n        /* \"#utility.yul\":645:678   */\n      tag_161\n        /* \"#utility.yul\":672:677   */\n      dup2\n        /* \"#utility.yul\":645:678   */\n      tag_110\n      jump\t// in\n    tag_161:\n        /* \"#utility.yul\":545:684   */\n      swap3\n      swap2\n      pop\n      pop\n      jump\t// out\n        /* \"#utility.yul\":690:1019   */\n    tag_17:\n        /* \"#utility.yul\":749:755   */\n      0x00\n        /* \"#utility.yul\":798:800   */\n      0x20\n        /* \"#utility.yul\":786:795   */\n      dup3\n        /* \"#utility.yul\":777:784   */\n      dup5\n        /* \"#utility.yul\":773:796   */\n      sub\n        /* \"#utility.yul\":769:801   */\n      slt\n        /* \"#utility.yul\":766:885   */\n      iszero\n      tag_163\n      jumpi\n        /* \"#utility.yul\":804:883   */\n      tag_164\n      tag_107\n      jump\t// in\n    tag_164:\n        /* \"#utility.yul\":766:885   */\n    tag_163:\n        /* \"#utility.yul\":924:925   */\n      0x00\n        /* \"#utility.yul\":949:1002   */\n      tag_165\n        /* \"#utility.yul\":994:1001   */\n      dup5\n        /* \"#utility.yul\":985:991   */\n      dup3\n        /* \"#utility.yul\":974:983   */\n      dup6\n        /* \"#utility.yul\":970:992   */\n      add\n        /* \"#utility.yul\":949:1002   */\n      tag_111\n      jump\t// in\n    tag_165:\n        /* \"#utility.yul\":939:1002   */\n      swap2\n      pop\n        /* \"#utility.yul\":895:1012   */\n      pop\n        /* \"#utility.yul\":690:1019   */\n      swap3\n      swap2\n      pop\n      pop\n      jump\t// out\n        /* \"#utility.yul\":1025:1151   */\n    tag_112:\n        /* \"#utility.yul\":1062:1069   */\n      0x00\n        /* \"#utility.yul\":1102:1144   */\n      0xffffffffffffffffffffffffffffffffffffffff\n        /* \"#utility.yul\":1095:1100   */\n      dup3\n        /* \"#utility.yul\":1091:1145   */\n      and\n        /* \"#utility.yul\":1080:1145   */\n      swap1\n      pop\n        /* \"#utility.yul\":1025:1151   */\n      swap2\n      swap1\n      pop\n      jump\t// out\n        /* \"#utility.yul\":1157:1253   */\n    tag_113:\n        /* \"#utility.yul\":1194:1201   */\n      0x00\n        /* \"#utility.yul\":1223:1247   */\n      tag_168\n        /* \"#utility.yul\":1241:1246   */\n      dup3\n        /* \"#utility.yul\":1223:1247   */\n      tag_112\n      jump\t// in\n    tag_168:\n        /* \"#utility.yul\":1212:1247   */\n      swap1\n      pop\n        /* \"#utility.yul\":1157:1253   */\n      swap2\n      swap1\n      pop\n      jump\t// out\n        /* \"#utility.yul\":1259:1381   */\n    tag_114:\n        /* \"#utility.yul\":1332:1356   */\n      tag_170\n        /* \"#utility.yul\":1350:1355   */\n      dup2\n        /* \"#utility.yul\":1332:1356   */\n      tag_113\n      jump\t// in\n    tag_170:\n        /* \"#utility.yul\":1325:1330   */\n      dup2\n        /* \"#utility.yul\":1322:1357   */\n      eq\n        /* \"#utility.yul\":1312:1375   */\n      tag_171\n      jumpi\n        /* \"#utility.yul\":1371:1372   */\n      0x00\n        /* \"#utility.yul\":1368:1369   */\n      dup1\n        /* \"#utility.yul\":1361:1373   */\n      revert\n        /* \"#utility.yul\":1312:1375   */\n    tag_171:\n        /* \"#utility.yul\":1259:1381   */\n      pop\n      jump\t// out\n        /* \"#utility.yul\":1387:1526   */\n    tag_115:\n        /* \"#utility.yul\":1433:1438   */\n      0x00\n        /* \"#utility.yul\":1471:1477   */\n      dup2\n        /* \"#utility.yul\":1458:1478   */\n      calldataload\n        /* \"#utility.yul\":1449:1478   */\n      swap1\n      pop\n        /* \"#utility.yul\":1487:1520   */\n      tag_173\n        /* \"#utility.yul\":1514:1519   */\n      dup2\n        /* \"#utility.yul\":1487:1520   */\n      tag_114\n      jump\t// in\n    tag_173:\n        /* \"#utility.yul\":1387:1526   */\n      swap3\n      swap2\n      pop\n      pop\n      jump\t// out\n        /* \"#utility.yul\":1532:1861   */\n    tag_22:\n        /* \"#utility.yul\":1591:1597   */\n      0x00\n        /* \"#utility.yul\":1640:1642   */\n      0x20\n        /* \"#utility.yul\":1628:1637   */\n      dup3\n        /* \"#utility.yul\":1619:1626   */\n      dup5\n        /* \"#utility.yul\":1615:1638   */\n      sub\n        /* \"#utility.yul\":1611:1643   */\n      slt\n        /* \"#utility.yul\":1608:1727   */\n      iszero\n      tag_175\n      jumpi\n        /* \"#utility.yul\":1646:1725   */\n      tag_176\n      tag_107\n      jump\t// in\n    tag_176:\n        /* \"#utility.yul\":1608:1727   */\n    tag_175:\n        /* \"#utility.yul\":1766:1767   */\n      0x00\n        /* \"#utility.yul\":1791:1844   */\n      tag_177\n        /* \"#utility.yul\":1836:1843   */\n      dup5\n        /* \"#utility.yul\":1827:1833   */\n      dup3\n        /* \"#utility.yul\":1816:1825   */\n      dup6\n        /* \"#utility.yul\":1812:1834   */\n      add\n        /* \"#utility.yul\":1791:1844   */\n      tag_115\n      jump\t// in\n    tag_177:\n        /* \"#utility.yul\":1781:1844   */\n      swap2\n      pop\n        /* \"#utility.yul\":1737:1854   */\n      pop\n        /* \"#utility.yul\":1532:1861   */\n      swap3\n      swap2\n      pop\n      pop\n      jump\t// out\n        /* \"#utility.yul\":1867:1957   */\n    tag_116:\n        /* \"#utility.yul\":1901:1908   */\n      0x00\n        /* \"#utility.yul\":1944:1949   */\n      dup2\n        /* \"#utility.yul\":1937:1950   */\n      iszero\n        /* \"#utility.yul\":1930:1951   */\n      iszero\n        /* \"#utility.yul\":1919:1951   */\n      swap1\n      pop\n        /* \"#utility.yul\":1867:1957   */\n      swap2\n      swap1\n      pop\n      jump\t// out\n        /* \"#utility.yul\":1963:2072   */\n    tag_117:\n        /* \"#utility.yul\":2044:2065   */\n      tag_180\n        /* \"#utility.yul\":2059:2064   */\n      dup2\n        /* \"#utility.yul\":2044:2065   */\n      tag_116\n      jump\t// in\n    tag_180:\n        /* \"#utility.yul\":2039:2042   */\n      dup3\n        /* \"#utility.yul\":2032:2066   */\n      mstore\n        /* \"#utility.yul\":1963:2072   */\n      pop\n      pop\n      jump\t// out\n        /* \"#utility.yul\":2078:2288   */\n    tag_25:\n        /* \"#utility.yul\":2165:2169   */\n      0x00\n        /* \"#utility.yul\":2203:2205   */\n      0x20\n        /* \"#utility.yul\":2192:2201   */\n      dup3\n        /* \"#utility.yul\":2188:2206   */\n      add\n        /* \"#utility.yul\":2180:2206   */\n      swap1\n      pop\n        /* \"#utility.yul\":2216:2281   */\n      tag_182\n        /* \"#utility.yul\":2278:2279   */\n      0x00\n        /* \"#utility.yul\":2267:2276   */\n      dup4\n        /* \"#utility.yul\":2263:2280   */\n      add\n        /* \"#utility.yul\":2254:2260   */\n      dup5\n        /* \"#utility.yul\":2216:2281   */\n      tag_117\n      jump\t// in\n    tag_182:\n        /* \"#utility.yul\":2078:2288   */\n      swap3\n      swap2\n      pop\n      pop\n      jump\t// out\n        /* \"#utility.yul\":2294:2412   */\n    tag_118:\n        /* \"#utility.yul\":2381:2405   */\n      tag_184\n        /* \"#utility.yul\":2399:2404   */\n      dup2\n        /* \"#utility.yul\":2381:2405   */\n      tag_109\n      jump\t// in\n    tag_184:\n        /* \"#utility.yul\":2376:2379   */\n      dup3\n        /* \"#utility.yul\":2369:2406   */\n      mstore\n        /* \"#utility.yul\":2294:2412   */\n      pop\n      pop\n      jump\t// out\n        /* \"#utility.yul\":2418:2640   */\n    tag_30:\n        /* \"#utility.yul\":2511:2515   */\n      0x00\n        /* \"#utility.yul\":2549:2551   */\n      0x20\n        /* \"#utility.yul\":2538:2547   */\n      dup3\n        /* \"#utility.yul\":2534:2552   */\n      add\n        /* \"#utility.yul\":2526:2552   */\n      swap1\n      pop\n        /* \"#utility.yul\":2562:2633   */\n      tag_186\n        /* \"#utility.yul\":2630:2631   */\n      0x00\n        /* \"#utility.yul\":2619:2628   */\n      dup4\n        /* \"#utility.yul\":2615:2632   */\n      add\n        /* \"#utility.yul\":2606:2612   */\n      dup5\n        /* \"#utility.yul\":2562:2633   */\n      tag_118\n      jump\t// in\n    tag_186:\n        /* \"#utility.yul\":2418:2640   */\n      swap3\n      swap2\n      pop\n      pop\n      jump\t// out\n        /* \"#utility.yul\":2646:2764   */\n    tag_119:\n        /* \"#utility.yul\":2733:2757   */\n      tag_188\n        /* \"#utility.yul\":2751:2756   */\n      dup2\n        /* \"#utility.yul\":2733:2757   */\n      tag_113\n      jump\t// in\n    tag_188:\n        /* \"#utility.yul\":2728:2731   */\n      dup3\n        /* \"#utility.yul\":2721:2758   */\n      mstore\n        /* \"#utility.yul\":2646:2764   */\n      pop\n      pop\n      jump\t// out\n        /* \"#utility.yul\":2770:2992   */\n    tag_35:\n        /* \"#utility.yul\":2863:2867   */\n      0x00\n        /* \"#utility.yul\":2901:2903   */\n      0x20\n        /* \"#utility.yul\":2890:2899   */\n      dup3\n        /* \"#utility.yul\":2886:2904   */\n      add\n        /* \"#utility.yul\":2878:2904   */\n      swap1\n      pop\n        /* \"#utility.yul\":2914:2985   */\n      tag_190\n        /* \"#utility.yul\":2982:2983   */\n      0x00\n        /* \"#utility.yul\":2971:2980   */\n      dup4\n        /* \"#utility.yul\":2967:2984   */\n      add\n        /* \"#utility.yul\":2958:2964   */\n      dup5\n        /* \"#utility.yul\":2914:2985   */\n      tag_119\n      jump\t// in\n    tag_190:\n        /* \"#utility.yul\":2770:2992   */\n      swap3\n      swap2\n      pop\n      pop\n      jump\t// out\n        /* \"#utility.yul\":2998:3097   */\n    tag_120:\n        /* \"#utility.yul\":3050:3056   */\n      0x00\n        /* \"#utility.yul\":3084:3089   */\n      dup2\n        /* \"#utility.yul\":3078:3090   */\n      mload\n        /* \"#utility.yul\":3068:3090   */\n      swap1\n      pop\n        /* \"#utility.yul\":2998:3097   */\n      swap2\n      swap1\n      pop\n      jump\t// out\n        /* \"#utility.yul\":3103:3272   */\n    tag_121:\n        /* \"#utility.yul\":3187:3198   */\n      0x00\n        /* \"#utility.yul\":3221:3227   */\n      dup3\n        /* \"#utility.yul\":3216:3219   */\n      dup3\n        /* \"#utility.yul\":3209:3228   */\n      mstore\n        /* \"#utility.yul\":3261:3265   */\n      0x20\n        /* \"#utility.yul\":3256:3259   */\n      dup3\n        /* \"#utility.yul\":3252:3266   */\n      add\n        /* \"#utility.yul\":3237:3266   */\n      swap1\n      pop\n        /* \"#utility.yul\":3103:3272   */\n      swap3\n      swap2\n      pop\n      pop\n      jump\t// out\n        /* \"#utility.yul\":3278:3417   */\n    tag_122:\n        /* \"#utility.yul\":3367:3373   */\n      dup3\n        /* \"#utility.yul\":3362:3365   */\n      dup2\n        /* \"#utility.yul\":3357:3360   */\n      dup4\n        /* \"#utility.yul\":3351:3374   */\n      mcopy\n        /* \"#utility.yul\":3408:3409   */\n      0x00\n        /* \"#utility.yul\":3399:3405   */\n      dup4\n        /* \"#utility.yul\":3394:3397   */\n      dup4\n        /* \"#utility.yul\":3390:3406   */\n      add\n        /* \"#utility.yul\":3383:3410   */\n      mstore\n        /* \"#utility.yul\":3278:3417   */\n      pop\n      pop\n      pop\n      jump\t// out\n        /* \"#utility.yul\":3423:3525   */\n    tag_123:\n        /* \"#utility.yul\":3464:3470   */\n      0x00\n        /* \"#utility.yul\":3515:3517   */\n      0x1f\n        /* \"#utility.yul\":3511:3518   */\n      not\n        /* \"#utility.yul\":3506:3508   */\n      0x1f\n        /* \"#utility.yul\":3499:3504   */\n      dup4\n        /* \"#utility.yul\":3495:3509   */\n      add\n        /* \"#utility.yul\":3491:3519   */\n      and\n        /* \"#utility.yul\":3481:3519   */\n      swap1\n      pop\n        /* \"#utility.yul\":3423:3525   */\n      swap2\n      swap1\n      pop\n      jump\t// out\n        /* \"#utility.yul\":3531:3908   */\n    tag_124:\n        /* \"#utility.yul\":3619:3622   */\n      0x00\n        /* \"#utility.yul\":3647:3686   */\n      tag_196\n        /* \"#utility.yul\":3680:3685   */\n      dup3\n        /* \"#utility.yul\":3647:3686   */\n      tag_120\n      jump\t// in\n    tag_196:\n        /* \"#utility.yul\":3702:3773   */\n      tag_197\n        /* \"#utility.yul\":3766:3772   */\n      dup2\n        /* \"#utility.yul\":3761:3764   */\n      dup6\n        /* \"#utility.yul\":3702:3773   */\n      tag_121\n      jump\t// in\n    tag_197:\n        /* \"#utility.yul\":3695:3773   */\n      swap4\n      pop\n        /* \"#utility.yul\":3782:3847   */\n      tag_198\n        /* \"#utility.yul\":3840:3846   */\n      dup2\n        /* \"#utility.yul\":3835:3838   */\n      dup6\n        /* \"#utility.yul\":3828:3832   */\n      0x20\n        /* \"#utility.yul\":3821:3826   */\n      dup7\n        /* \"#utility.yul\":3817:3833   */\n      add\n        /* \"#utility.yul\":3782:3847   */\n      tag_122\n      jump\t// in\n    tag_198:\n        /* \"#utility.yul\":3872:3901   */\n      tag_199\n        /* \"#utility.yul\":3894:3900   */\n      dup2\n        /* \"#utility.yul\":3872:3901   */\n      tag_123\n      jump\t// in\n    tag_199:\n        /* \"#utility.yul\":3867:3870   */\n      dup5\n        /* \"#utility.yul\":3863:3902   */\n      add\n        /* \"#utility.yul\":3856:3902   */\n      swap2\n      pop\n        /* \"#utility.yul\":3623:3908   */\n      pop\n        /* \"#utility.yul\":3531:3908   */\n      swap3\n      swap2\n      pop\n      pop\n      jump\t// out\n        /* \"#utility.yul\":3914:4657   */\n    tag_41:\n        /* \"#utility.yul\":4133:4137   */\n      0x00\n        /* \"#utility.yul\":4171:4174   */\n      0xa0\n        /* \"#utility.yul\":4160:4169   */\n      dup3\n        /* \"#utility.yul\":4156:4175   */\n      add\n        /* \"#utility.yul\":4148:4175   */\n      swap1\n      pop\n        /* \"#utility.yul\":4221:4230   */\n      dup2\n        /* \"#utility.yul\":4215:4219   */\n      dup2\n        /* \"#utility.yul\":4211:4231   */\n      sub\n        /* \"#utility.yul\":4207:4208   */\n      0x00\n        /* \"#utility.yul\":4196:4205   */\n      dup4\n        /* \"#utility.yul\":4192:4209   */\n      add\n        /* \"#utility.yul\":4185:4232   */\n      mstore\n        /* \"#utility.yul\":4249:4327   */\n      tag_201\n        /* \"#utility.yul\":4322:4326   */\n      dup2\n        /* \"#utility.yul\":4313:4319   */\n      dup9\n        /* \"#utility.yul\":4249:4327   */\n      tag_124\n      jump\t// in\n    tag_201:\n        /* \"#utility.yul\":4241:4327   */\n      swap1\n      pop\n        /* \"#utility.yul\":4337:4409   */\n      tag_202\n        /* \"#utility.yul\":4405:4407   */\n      0x20\n        /* \"#utility.yul\":4394:4403   */\n      dup4\n        /* \"#utility.yul\":4390:4408   */\n      add\n        /* \"#utility.yul\":4381:4387   */\n      dup8\n        /* \"#utility.yul\":4337:4409   */\n      tag_118\n      jump\t// in\n    tag_202:\n        /* \"#utility.yul\":4419:4491   */\n      tag_203\n        /* \"#utility.yul\":4487:4489   */\n      0x40\n        /* \"#utility.yul\":4476:4485   */\n      dup4\n        /* \"#utility.yul\":4472:4490   */\n      add\n        /* \"#utility.yul\":4463:4469   */\n      dup7\n        /* \"#utility.yul\":4419:4491   */\n      tag_119\n      jump\t// in\n    tag_203:\n        /* \"#utility.yul\":4501:4567   */\n      tag_204\n        /* \"#utility.yul\":4563:4565   */\n      0x60\n        /* \"#utility.yul\":4552:4561   */\n      dup4\n        /* \"#utility.yul\":4548:4566   */\n      add\n        /* \"#utility.yul\":4539:4545   */\n      dup6\n        /* \"#utility.yul\":4501:4567   */\n      tag_117\n      jump\t// in\n    tag_204:\n        /* \"#utility.yul\":4577:4650   */\n      tag_205\n        /* \"#utility.yul\":4645:4648   */\n      0x80\n        /* \"#utility.yul\":4634:4643   */\n      dup4\n        /* \"#utility.yul\":4630:4649   */\n      add\n        /* \"#utility.yul\":4621:4627   */\n      dup5\n        /* \"#utility.yul\":4577:4650   */\n      tag_118\n      jump\t// in\n    tag_205:\n        /* \"#utility.yul\":3914:4657   */\n      swap7\n      swap6\n      pop\n      pop\n      pop\n      pop\n      pop\n      pop\n      jump\t// out\n        /* \"#utility.yul\":4663:4780   */\n    tag_125:\n        /* \"#utility.yul\":4772:4773   */\n      0x00\n        /* \"#utility.yul\":4769:4770   */\n      dup1\n        /* \"#utility.yul\":4762:4774   */\n      revert\n        /* \"#utility.yul\":4786:4903   */\n    tag_126:\n        /* \"#utility.yul\":4895:4896   */\n      0x00\n        /* \"#utility.yul\":4892:4893   */\n      dup1\n        /* \"#utility.yul\":4885:4897   */\n      revert\n        /* \"#utility.yul\":4909:5089   */\n    tag_127:\n        /* \"#utility.yul\":4957:5034   */\n      0x4e487b7100000000000000000000000000000000000000000000000000000000\n        /* \"#utility.yul\":4954:4955   */\n      0x00\n        /* \"#utility.yul\":4947:5035   */\n      mstore\n        /* \"#utility.yul\":5054:5058   */\n      0x41\n        /* \"#utility.yul\":5051:5052   */\n      0x04\n        /* \"#utility.yul\":5044:5059   */\n      mstore\n        /* \"#utility.yul\":5078:5082   */\n      0x24\n        /* \"#utility.yul\":5075:5076   */\n      0x00\n        /* \"#utility.yul\":5068:5083   */\n      revert\n        /* \"#utility.yul\":5095:5376   */\n    tag_128:\n        /* \"#utility.yul\":5178:5205   */\n      tag_210\n        /* \"#utility.yul\":5200:5204   */\n      dup3\n        /* \"#utility.yul\":5178:5205   */\n      tag_123\n      jump\t// in\n    tag_210:\n        /* \"#utility.yul\":5170:5176   */\n      dup2\n        /* \"#utility.yul\":5166:5206   */\n      add\n        /* \"#utility.yul\":5308:5314   */\n      dup2\n        /* \"#utility.yul\":5296:5306   */\n      dup2\n        /* \"#utility.yul\":5293:5315   */\n      lt\n        /* \"#utility.yul\":5272:5290   */\n      0xffffffffffffffff\n        /* \"#utility.yul\":5260:5270   */\n      dup3\n        /* \"#utility.yul\":5257:5291   */\n      gt\n        /* \"#utility.yul\":5254:5316   */\n      or\n        /* \"#utility.yul\":5251:5339   */\n      iszero\n      tag_211\n      jumpi\n        /* \"#utility.yul\":5319:5337   */\n      tag_212\n      tag_127\n      jump\t// in\n    tag_212:\n        /* \"#utility.yul\":5251:5339   */\n    tag_211:\n        /* \"#utility.yul\":5359:5369   */\n      dup1\n        /* \"#utility.yul\":5355:5357   */\n      0x40\n        /* \"#utility.yul\":5348:5370   */\n      mstore\n        /* \"#utility.yul\":5138:5376   */\n      pop\n        /* \"#utility.yul\":5095:5376   */\n      pop\n      pop\n      jump\t// out\n        /* \"#utility.yul\":5382:5511   */\n    tag_129:\n        /* \"#utility.yul\":5416:5422   */\n      0x00\n        /* \"#utility.yul\":5443:5463   */\n      tag_214\n      tag_106\n      jump\t// in\n    tag_214:\n        /* \"#utility.yul\":5433:5463   */\n      swap1\n      pop\n        /* \"#utility.yul\":5472:5505   */\n      tag_215\n        /* \"#utility.yul\":5500:5504   */\n      dup3\n        /* \"#utility.yul\":5492:5498   */\n      dup3\n        /* \"#utility.yul\":5472:5505   */\n      tag_128\n      jump\t// in\n    tag_215:\n        /* \"#utility.yul\":5382:5511   */\n      swap2\n      swap1\n      pop\n      jump\t// out\n        /* \"#utility.yul\":5517:5825   */\n    tag_130:\n        /* \"#utility.yul\":5579:5583   */\n      0x00\n        /* \"#utility.yul\":5669:5687   */\n      0xffffffffffffffff\n        /* \"#utility.yul\":5661:5667   */\n      dup3\n        /* \"#utility.yul\":5658:5688   */\n      gt\n        /* \"#utility.yul\":5655:5711   */\n      iszero\n      tag_217\n      jumpi\n        /* \"#utility.yul\":5691:5709   */\n      tag_218\n      tag_127\n      jump\t// in\n    tag_218:\n        /* \"#utility.yul\":5655:5711   */\n    tag_217:\n        /* \"#utility.yul\":5729:5758   */\n      tag_219\n        /* \"#utility.yul\":5751:5757   */\n      dup3\n        /* \"#utility.yul\":5729:5758   */\n      tag_123\n      jump\t// in\n    tag_219:\n        /* \"#utility.yul\":5721:5758   */\n      swap1\n      pop\n        /* \"#utility.yul\":5813:5817   */\n      0x20\n        /* \"#utility.yul\":5807:5811   */\n      dup2\n        /* \"#utility.yul\":5803:5818   */\n      add\n        /* \"#utility.yul\":5795:5818   */\n      swap1\n      pop\n        /* \"#utility.yul\":5517:5825   */\n      swap2\n      swap1\n      pop\n      jump\t// out\n        /* \"#utility.yul\":5831:5979   */\n    tag_131:\n        /* \"#utility.yul\":5929:5935   */\n      dup3\n        /* \"#utility.yul\":5924:5927   */\n      dup2\n        /* \"#utility.yul\":5919:5922   */\n      dup4\n        /* \"#utility.yul\":5906:5936   */\n      calldatacopy\n        /* \"#utility.yul\":5970:5971   */\n      0x00\n        /* \"#utility.yul\":5961:5967   */\n      dup4\n        /* \"#utility.yul\":5956:5959   */\n      dup4\n        /* \"#utility.yul\":5952:5968   */\n      add\n        /* \"#utility.yul\":5945:5972   */\n      mstore\n        /* \"#utility.yul\":5831:5979   */\n      pop\n      pop\n      pop\n      jump\t// out\n        /* \"#utility.yul\":5985:6410   */\n    tag_132:\n        /* \"#utility.yul\":6063:6068   */\n      0x00\n        /* \"#utility.yul\":6088:6154   */\n      tag_222\n        /* \"#utility.yul\":6104:6153   */\n      tag_223\n        /* \"#utility.yul\":6146:6152   */\n      dup5\n        /* \"#utility.yul\":6104:6153   */\n      tag_130\n      jump\t// in\n    tag_223:\n        /* \"#utility.yul\":6088:6154   */\n      tag_129\n      jump\t// in\n    tag_222:\n        /* \"#utility.yul\":6079:6154   */\n      swap1\n      pop\n        /* \"#utility.yul\":6177:6183   */\n      dup3\n        /* \"#utility.yul\":6170:6175   */\n      dup2\n        /* \"#utility.yul\":6163:6184   */\n      mstore\n        /* \"#utility.yul\":6215:6219   */\n      0x20\n        /* \"#utility.yul\":6208:6213   */\n      dup2\n        /* \"#utility.yul\":6204:6220   */\n      add\n        /* \"#utility.yul\":6253:6256   */\n      dup5\n        /* \"#utility.yul\":6244:6250   */\n      dup5\n        /* \"#utility.yul\":6239:6242   */\n      dup5\n        /* \"#utility.yul\":6235:6251   */\n      add\n        /* \"#utility.yul\":6232:6257   */\n      gt\n        /* \"#utility.yul\":6229:6341   */\n      iszero\n      tag_224\n      jumpi\n        /* \"#utility.yul\":6260:6339   */\n      tag_225\n      tag_126\n      jump\t// in\n    tag_225:\n        /* \"#utility.yul\":6229:6341   */\n    tag_224:\n        /* \"#utility.yul\":6350:6404   */\n      tag_226\n        /* \"#utility.yul\":6397:6403   */\n      dup5\n        /* \"#utility.yul\":6392:6395   */\n      dup3\n        /* \"#utility.yul\":6387:6390   */\n      dup6\n        /* \"#utility.yul\":6350:6404   */\n      tag_131\n      jump\t// in\n    tag_226:\n        /* \"#utility.yul\":6069:6410   */\n      pop\n        /* \"#utility.yul\":5985:6410   */\n      swap4\n      swap3\n      pop\n      pop\n      pop\n      jump\t// out\n        /* \"#utility.yul\":6430:6770   */\n    tag_133:\n        /* \"#utility.yul\":6486:6491   */\n      0x00\n        /* \"#utility.yul\":6535:6538   */\n      dup3\n        /* \"#utility.yul\":6528:6532   */\n      0x1f\n        /* \"#utility.yul\":6520:6526   */\n      dup4\n        /* \"#utility.yul\":6516:6533   */\n      add\n        /* \"#utility.yul\":6512:6539   */\n      slt\n        /* \"#utility.yul\":6502:6624   */\n      tag_228\n      jumpi\n        /* \"#utility.yul\":6543:6622   */\n      tag_229\n      tag_125\n      jump\t// in\n    tag_229:\n        /* \"#utility.yul\":6502:6624   */\n    tag_228:\n        /* \"#utility.yul\":6660:6666   */\n      dup2\n        /* \"#utility.yul\":6647:6667   */\n      calldataload\n        /* \"#utility.yul\":6685:6764   */\n      tag_230\n        /* \"#utility.yul\":6760:6763   */\n      dup5\n        /* \"#utility.yul\":6752:6758   */\n      dup3\n        /* \"#utility.yul\":6745:6749   */\n      0x20\n        /* \"#utility.yul\":6737:6743   */\n      dup7\n        /* \"#utility.yul\":6733:6750   */\n      add\n        /* \"#utility.yul\":6685:6764   */\n      tag_132\n      jump\t// in\n    tag_230:\n        /* \"#utility.yul\":6676:6764   */\n      swap2\n      pop\n        /* \"#utility.yul\":6492:6770   */\n      pop\n        /* \"#utility.yul\":6430:6770   */\n      swap3\n      swap2\n      pop\n      pop\n      jump\t// out\n        /* \"#utility.yul\":6776:7575   */\n    tag_49:\n        /* \"#utility.yul\":6863:6869   */\n      0x00\n        /* \"#utility.yul\":6871:6877   */\n      dup1\n        /* \"#utility.yul\":6879:6885   */\n      0x00\n        /* \"#utility.yul\":6928:6930   */\n      0x60\n        /* \"#utility.yul\":6916:6925   */\n      dup5\n        /* \"#utility.yul\":6907:6914   */\n      dup7\n        /* \"#utility.yul\":6903:6926   */\n      sub\n        /* \"#utility.yul\":6899:6931   */\n      slt\n        /* \"#utility.yul\":6896:7015   */\n      iszero\n      tag_232\n      jumpi\n        /* \"#utility.yul\":6934:7013   */\n      tag_233\n      tag_107\n      jump\t// in\n    tag_233:\n        /* \"#utility.yul\":6896:7015   */\n    tag_232:\n        /* \"#utility.yul\":7082:7083   */\n      0x00\n        /* \"#utility.yul\":7071:7080   */\n      dup5\n        /* \"#utility.yul\":7067:7084   */\n      add\n        /* \"#utility.yul\":7054:7085   */\n      calldataload\n        /* \"#utility.yul\":7112:7130   */\n      0xffffffffffffffff\n        /* \"#utility.yul\":7104:7110   */\n      dup2\n        /* \"#utility.yul\":7101:7131   */\n      gt\n        /* \"#utility.yul\":7098:7215   */\n      iszero\n      tag_234\n      jumpi\n        /* \"#utility.yul\":7134:7213   */\n      tag_235\n      tag_108\n      jump\t// in\n    tag_235:\n        /* \"#utility.yul\":7098:7215   */\n    tag_234:\n        /* \"#utility.yul\":7239:7302   */\n      tag_236\n        /* \"#utility.yul\":7294:7301   */\n      dup7\n        /* \"#utility.yul\":7285:7291   */\n      dup3\n        /* \"#utility.yul\":7274:7283   */\n      dup8\n        /* \"#utility.yul\":7270:7292   */\n      add\n        /* \"#utility.yul\":7239:7302   */\n      tag_133\n      jump\t// in\n    tag_236:\n        /* \"#utility.yul\":7229:7302   */\n      swap4\n      pop\n        /* \"#utility.yul\":7025:7312   */\n      pop\n        /* \"#utility.yul\":7351:7353   */\n      0x20\n        /* \"#utility.yul\":7377:7430   */\n      tag_237\n        /* \"#utility.yul\":7422:7429   */\n      dup7\n        /* \"#utility.yul\":7413:7419   */\n      dup3\n        /* \"#utility.yul\":7402:7411   */\n      dup8\n        /* \"#utility.yul\":7398:7420   */\n      add\n        /* \"#utility.yul\":7377:7430   */\n      tag_111\n      jump\t// in\n    tag_237:\n        /* \"#utility.yul\":7367:7430   */\n      swap3\n      pop\n        /* \"#utility.yul\":7322:7440   */\n      pop\n        /* \"#utility.yul\":7479:7481   */\n      0x40\n        /* \"#utility.yul\":7505:7558   */\n      tag_238\n        /* \"#utility.yul\":7550:7557   */\n      dup7\n        /* \"#utility.yul\":7541:7547   */\n      dup3\n        /* \"#utility.yul\":7530:7539   */\n      dup8\n        /* \"#utility.yul\":7526:7548   */\n      add\n        /* \"#utility.yul\":7505:7558   */\n      tag_115\n      jump\t// in\n    tag_238:\n        /* \"#utility.yul\":7495:7558   */\n      swap2\n      pop\n        /* \"#utility.yul\":7450:7568   */\n      pop\n        /* \"#utility.yul\":6776:7575   */\n      swap3\n      pop\n      swap3\n      pop\n      swap3\n      jump\t// out\n        /* \"#utility.yul\":7581:8245   */\n    tag_65:\n        /* \"#utility.yul\":7786:7790   */\n      0x00\n        /* \"#utility.yul\":7824:7827   */\n      0xa0\n        /* \"#utility.yul\":7813:7822   */\n      dup3\n        /* \"#utility.yul\":7809:7828   */\n      add\n        /* \"#utility.yul\":7801:7828   */\n      swap1\n      pop\n        /* \"#utility.yul\":7838:7909   */\n      tag_240\n        /* \"#utility.yul\":7906:7907   */\n      0x00\n        /* \"#utility.yul\":7895:7904   */\n      dup4\n        /* \"#utility.yul\":7891:7908   */\n      add\n        /* \"#utility.yul\":7882:7888   */\n      dup9\n        /* \"#utility.yul\":7838:7909   */\n      tag_118\n      jump\t// in\n    tag_240:\n        /* \"#utility.yul\":7919:7991   */\n      tag_241\n        /* \"#utility.yul\":7987:7989   */\n      0x20\n        /* \"#utility.yul\":7976:7985   */\n      dup4\n        /* \"#utility.yul\":7972:7990   */\n      add\n        /* \"#utility.yul\":7963:7969   */\n      dup8\n        /* \"#utility.yul\":7919:7991   */\n      tag_118\n      jump\t// in\n    tag_241:\n        /* \"#utility.yul\":8001:8073   */\n      tag_242\n        /* \"#utility.yul\":8069:8071   */\n      0x40\n        /* \"#utility.yul\":8058:8067   */\n      dup4\n        /* \"#utility.yul\":8054:8072   */\n      add\n        /* \"#utility.yul\":8045:8051   */\n      dup7\n        /* \"#utility.yul\":8001:8073   */\n      tag_118\n      jump\t// in\n    tag_242:\n        /* \"#utility.yul\":8083:8155   */\n      tag_243\n        /* \"#utility.yul\":8151:8153   */\n      0x60\n        /* \"#utility.yul\":8140:8149   */\n      dup4\n        /* \"#utility.yul\":8136:8154   */\n      add\n        /* \"#utility.yul\":8127:8133   */\n      dup6\n        /* \"#utility.yul\":8083:8155   */\n      tag_118\n      jump\t// in\n    tag_243:\n        /* \"#utility.yul\":8165:8238   */\n      tag_244\n        /* \"#utility.yul\":8233:8236   */\n      0x80\n        /* \"#utility.yul\":8222:8231   */\n      dup4\n        /* \"#utility.yul\":8218:8237   */\n      add\n        /* \"#utility.yul\":8209:8215   */\n      dup5\n        /* \"#utility.yul\":8165:8238   */\n      tag_119\n      jump\t// in\n    tag_244:\n        /* \"#utility.yul\":7581:8245   */\n      swap7\n      swap6\n      pop\n      pop\n      pop\n      pop\n      pop\n      pop\n      jump\t// out\n        /* \"#utility.yul\":8251:8431   */\n    tag_71:\n        /* \"#utility.yul\":8299:8376   */\n      0x4e487b7100000000000000000000000000000000000000000000000000000000\n        /* \"#utility.yul\":8296:8297   */\n      0x00\n        /* \"#utility.yul\":8289:8377   */\n      mstore\n        /* \"#utility.yul\":8396:8400   */\n      0x32\n        /* \"#utility.yul\":8393:8394   */\n      0x04\n        /* \"#utility.yul\":8386:8401   */\n      mstore\n        /* \"#utility.yul\":8420:8424   */\n      0x24\n        /* \"#utility.yul\":8417:8418   */\n      0x00\n        /* \"#utility.yul\":8410:8425   */\n      revert\n        /* \"#utility.yul\":8437:8617   */\n    tag_134:\n        /* \"#utility.yul\":8485:8562   */\n      0x4e487b7100000000000000000000000000000000000000000000000000000000\n        /* \"#utility.yul\":8482:8483   */\n      0x00\n        /* \"#utility.yul\":8475:8563   */\n      mstore\n        /* \"#utility.yul\":8582:8586   */\n      0x12\n        /* \"#utility.yul\":8579:8580   */\n      0x04\n        /* \"#utility.yul\":8572:8587   */\n      mstore\n        /* \"#utility.yul\":8606:8610   */\n      0x24\n        /* \"#utility.yul\":8603:8604   */\n      0x00\n        /* \"#utility.yul\":8596:8611   */\n      revert\n        /* \"#utility.yul\":8623:8803   */\n    tag_135:\n        /* \"#utility.yul\":8671:8748   */\n      0x4e487b7100000000000000000000000000000000000000000000000000000000\n        /* \"#utility.yul\":8668:8669   */\n      0x00\n        /* \"#utility.yul\":8661:8749   */\n      mstore\n        /* \"#utility.yul\":8768:8772   */\n      0x11\n        /* \"#utility.yul\":8765:8766   */\n      0x04\n        /* \"#utility.yul\":8758:8773   */\n      mstore\n        /* \"#utility.yul\":8792:8796   */\n      0x24\n        /* \"#utility.yul\":8789:8790   */\n      0x00\n        /* \"#utility.yul\":8782:8797   */\n      revert\n        /* \"#utility.yul\":8809:8994   */\n    tag_74:\n        /* \"#utility.yul\":8849:8850   */\n      0x00\n        /* \"#utility.yul\":8866:8886   */\n      tag_249\n        /* \"#utility.yul\":8884:8885   */\n      dup3\n        /* \"#utility.yul\":8866:8886   */\n      tag_109\n      jump\t// in\n    tag_249:\n        /* \"#utility.yul\":8861:8886   */\n      swap2\n      pop\n        /* \"#utility.yul\":8900:8920   */\n      tag_250\n        /* \"#utility.yul\":8918:8919   */\n      dup4\n        /* \"#utility.yul\":8900:8920   */\n      tag_109\n      jump\t// in\n    tag_250:\n        /* \"#utility.yul\":8895:8920   */\n      swap3\n      pop\n        /* \"#utility.yul\":8939:8940   */\n      dup3\n        /* \"#utility.yul\":8929:8964   */\n      tag_251\n      jumpi\n        /* \"#utility.yul\":8944:8962   */\n      tag_252\n      tag_134\n      jump\t// in\n    tag_252:\n        /* \"#utility.yul\":8929:8964   */\n    tag_251:\n        /* \"#utility.yul\":8986:8987   */\n      dup3\n        /* \"#utility.yul\":8983:8984   */\n      dup3\n        /* \"#utility.yul\":8979:8988   */\n      div\n        /* \"#utility.yul\":8974:8988   */\n      swap1\n      pop\n        /* \"#utility.yul\":8809:8994   */\n      swap3\n      swap2\n      pop\n      pop\n      jump\t// out\n        /* \"#utility.yul\":9000:9180   */\n    tag_136:\n        /* \"#utility.yul\":9048:9125   */\n      0x4e487b7100000000000000000000000000000000000000000000000000000000\n        /* \"#utility.yul\":9045:9046   */\n      0x00\n        /* \"#utility.yul\":9038:9126   */\n      mstore\n        /* \"#utility.yul\":9145:9149   */\n      0x22\n        /* \"#utility.yul\":9142:9143   */\n      0x04\n        /* \"#utility.yul\":9135:9150   */\n      mstore\n        /* \"#utility.yul\":9169:9173   */\n      0x24\n        /* \"#utility.yul\":9166:9167   */\n      0x00\n        /* \"#utility.yul\":9159:9174   */\n      revert\n        /* \"#utility.yul\":9186:9506   */\n    tag_83:\n        /* \"#utility.yul\":9230:9236   */\n      0x00\n        /* \"#utility.yul\":9267:9268   */\n      0x02\n        /* \"#utility.yul\":9261:9265   */\n      dup3\n        /* \"#utility.yul\":9257:9269   */\n      div\n        /* \"#utility.yul\":9247:9269   */\n      swap1\n      pop\n        /* \"#utility.yul\":9314:9315   */\n      0x01\n        /* \"#utility.yul\":9308:9312   */\n      dup3\n        /* \"#utility.yul\":9304:9316   */\n      and\n        /* \"#utility.yul\":9335:9353   */\n      dup1\n        /* \"#utility.yul\":9325:9406   */\n      tag_255\n      jumpi\n        /* \"#utility.yul\":9391:9395   */\n      0x7f\n        /* \"#utility.yul\":9383:9389   */\n      dup3\n        /* \"#utility.yul\":9379:9396   */\n      and\n        /* \"#utility.yul\":9369:9396   */\n      swap2\n      pop\n        /* \"#utility.yul\":9325:9406   */\n    tag_255:\n        /* \"#utility.yul\":9453:9455   */\n      0x20\n        /* \"#utility.yul\":9445:9451   */\n      dup3\n        /* \"#utility.yul\":9442:9456   */\n      lt\n        /* \"#utility.yul\":9422:9440   */\n      dup2\n        /* \"#utility.yul\":9419:9457   */\n      sub\n        /* \"#utility.yul\":9416:9500   */\n      tag_256\n      jumpi\n        /* \"#utility.yul\":9472:9490   */\n      tag_257\n      tag_136\n      jump\t// in\n    tag_257:\n        /* \"#utility.yul\":9416:9500   */\n    tag_256:\n        /* \"#utility.yul\":9237:9506   */\n      pop\n        /* \"#utility.yul\":9186:9506   */\n      swap2\n      swap1\n      pop\n      jump\t// out\n        /* \"#utility.yul\":9512:9653   */\n    tag_137:\n        /* \"#utility.yul\":9561:9565   */\n      0x00\n        /* \"#utility.yul\":9584:9587   */\n      dup2\n        /* \"#utility.yul\":9576:9587   */\n      swap1\n      pop\n        /* \"#utility.yul\":9607:9610   */\n      dup2\n        /* \"#utility.yul\":9604:9605   */\n      0x00\n        /* \"#utility.yul\":9597:9611   */\n      mstore\n        /* \"#utility.yul\":9641:9645   */\n      0x20\n        /* \"#utility.yul\":9638:9639   */\n      0x00\n        /* \"#utility.yul\":9628:9646   */\n      keccak256\n        /* \"#utility.yul\":9620:9646   */\n      swap1\n      pop\n        /* \"#utility.yul\":9512:9653   */\n      swap2\n      swap1\n      pop\n      jump\t// out\n        /* \"#utility.yul\":9659:9752   */\n    tag_138:\n        /* \"#utility.yul\":9696:9702   */\n      0x00\n        /* \"#utility.yul\":9743:9745   */\n      0x20\n        /* \"#utility.yul\":9738:9740   */\n      0x1f\n        /* \"#utility.yul\":9731:9736   */\n      dup4\n        /* \"#utility.yul\":9727:9741   */\n      add\n        /* \"#utility.yul\":9723:9746   */\n      div\n        /* \"#utility.yul\":9713:9746   */\n      swap1\n      pop\n        /* \"#utility.yul\":9659:9752   */\n      swap2\n      swap1\n      pop\n      jump\t// out\n        /* \"#utility.yul\":9758:9865   */\n    tag_139:\n        /* \"#utility.yul\":9802:9810   */\n      0x00\n        /* \"#utility.yul\":9852:9857   */\n      dup3\n        /* \"#utility.yul\":9846:9850   */\n      dup3\n        /* \"#utility.yul\":9842:9858   */\n      shl\n        /* \"#utility.yul\":9821:9858   */\n      swap1\n      pop\n        /* \"#utility.yul\":9758:9865   */\n      swap3\n      swap2\n      pop\n      pop\n      jump\t// out\n        /* \"#utility.yul\":9871:10264   */\n    tag_140:\n        /* \"#utility.yul\":9940:9946   */\n      0x00\n        /* \"#utility.yul\":9990:9991   */\n      0x08\n        /* \"#utility.yul\":9978:9988   */\n      dup4\n        /* \"#utility.yul\":9974:9992   */\n      mul\n        /* \"#utility.yul\":10013:10110   */\n      tag_262\n        /* \"#utility.yul\":10043:10109   */\n      0xffffffffffffffffffffffffffffffffffffffffffffffffffffffffffffffff\n        /* \"#utility.yul\":10032:10041   */\n      dup3\n        /* \"#utility.yul\":10013:10110   */\n      tag_139\n      jump\t// in\n    tag_262:\n        /* \"#utility.yul\":10131:10170   */\n      tag_263\n        /* \"#utility.yul\":10161:10169   */\n      dup7\n        /* \"#utility.yul\":10150:10159   */\n      dup4\n        /* \"#utility.yul\":10131:10170   */\n      tag_139\n      jump\t// in\n    tag_263:\n        /* \"#utility.yul\":10119:10170   */\n      swap6\n      pop\n        /* \"#utility.yul\":10203:10207   */\n      dup1\n        /* \"#utility.yul\":10199:10208   */\n      not\n        /* \"#utility.yul\":10192:10197   */\n      dup5\n        /* \"#utility.yul\":10188:10209   */\n      and\n        /* \"#utility.yul\":10179:10209   */\n      swap4\n      pop\n        /* \"#utility.yul\":10252:10256   */\n      dup1\n        /* \"#utility.yul\":10242:10250   */\n      dup7\n        /* \"#utility.yul\":10238:10257   */\n      and\n        /* \"#utility.yul\":10231:10236   */\n      dup5\n        /* \"#utility.yul\":10228:10258   */\n      or\n        /* \"#utility.yul\":10218:10258   */\n      swap3\n      pop\n        /* \"#utility.yul\":9947:10264   */\n      pop\n      pop\n        /* \"#utility.yul\":9871:10264   */\n      swap4\n      swap3\n      pop\n      pop\n      pop\n      jump\t// out\n        /* \"#utility.yul\":10270:10330   */\n    tag_141:\n        /* \"#utility.yul\":10298:10301   */\n      0x00\n        /* \"#utility.yul\":10319:10324   */\n      dup2\n        /* \"#utility.yul\":10312:10324   */\n      swap1\n      pop\n        /* \"#utility.yul\":10270:10330   */\n      swap2\n      swap1\n      pop\n      jump\t// out\n        /* \"#utility.yul\":10336:10478   */\n    tag_142:\n        /* \"#utility.yul\":10386:10395   */\n      0x00\n        /* \"#utility.yul\":10419:10472   */\n      tag_266\n        /* \"#utility.yul\":10437:10471   */\n      tag_267\n        /* \"#utility.yul\":10446:10470   */\n      tag_268\n        /* \"#utility.yul\":10464:10469   */\n      dup5\n        /* \"#utility.yul\":10446:10470   */\n      tag_109\n      jump\t// in\n    tag_268:\n        /* \"#utility.yul\":10437:10471   */\n      tag_141\n      jump\t// in\n    tag_267:\n        /* \"#utility.yul\":10419:10472   */\n      tag_109\n      jump\t// in\n    tag_266:\n        /* \"#utility.yul\":10406:10472   */\n      swap1\n      pop\n        /* \"#utility.yul\":10336:10478   */\n      swap2\n      swap1\n      pop\n      jump\t// out\n        /* \"#utility.yul\":10484:10559   */\n    tag_143:\n        /* \"#utility.yul\":10527:10530   */\n      0x00\n        /* \"#utility.yul\":10548:10553   */\n      dup2\n        /* \"#utility.yul\":10541:10553   */\n      swap1\n      pop\n        /* \"#utility.yul\":10484:10559   */\n      swap2\n      swap1\n      pop\n      jump\t// out\n        /* \"#utility.yul\":10565:10834   */\n    tag_144:\n        /* \"#utility.yul\":10675:10714   */\n      tag_271\n        /* \"#utility.yul\":10706:10713   */\n      dup4\n        /* \"#utility.yul\":10675:10714   */\n      tag_142\n      jump\t// in\n    tag_271:\n        /* \"#utility.yul\":10736:10827   */\n      tag_272\n        /* \"#utility.yul\":10785:10826   */\n      tag_273\n        /* \"#utility.yul\":10809:10825   */\n      dup3\n        /* \"#utility.yul\":10785:10826   */\n      tag_143\n      jump\t// in\n    tag_273:\n        /* \"#utility.yul\":10777:10783   */\n      dup5\n        /* \"#utility.yul\":10770:10774   */\n      dup5\n        /* \"#utility.yul\":10764:10775   */\n      sload\n        /* \"#utility.yul\":10736:10827   */\n      tag_140\n      jump\t// in\n    tag_272:\n        /* \"#utility.yul\":10730:10734   */\n      dup3\n        /* \"#utility.yul\":10723:10828   */\n      sstore\n        /* \"#utility.yul\":10641:10834   */\n      pop\n        /* \"#utility.yul\":10565:10834   */\n      pop\n      pop\n      pop\n      jump\t// out\n        /* \"#utility.yul\":10840:10913   */\n    tag_145:\n        /* \"#utility.yul\":10885:10888   */\n      0x00\n        /* \"#utility.yul\":10840:10913   */\n      swap1\n      jump\t// out\n        /* \"#utility.yul\":10919:11108   */\n    tag_146:\n        /* \"#utility.yul\":10996:11028   */\n      tag_276\n      tag_145\n      jump\t// in\n    tag_276:\n        /* \"#utility.yul\":11037:11102   */\n      tag_277\n        /* \"#utility.yul\":11095:11101   */\n      dup2\n        /* \"#utility.yul\":11087:11093   */\n      dup5\n        /* \"#utility.yul\":11081:11085   */\n      dup5\n        /* \"#utility.yul\":11037:11102   */\n      tag_144\n      jump\t// in\n    tag_277:\n        /* \"#utility.yul\":10972:11108   */\n      pop\n        /* \"#utility.yul\":10919:11108   */\n      pop\n      pop\n      jump\t// out\n        /* \"#utility.yul\":11114:11300   */\n    tag_147:\n        /* \"#utility.yul\":11174:11294   */\n    tag_279:\n        /* \"#utility.yul\":11191:11194   */\n      dup2\n        /* \"#utility.yul\":11184:11189   */\n      dup2\n        /* \"#utility.yul\":11181:11195   */\n      lt\n        /* \"#utility.yul\":11174:11294   */\n      iszero\n      tag_281\n      jumpi\n        /* \"#utility.yul\":11245:11284   */\n      tag_282\n        /* \"#utility.yul\":11282:11283   */\n      0x00\n        /* \"#utility.yul\":11275:11280   */\n      dup3\n        /* \"#utility.yul\":11245:11284   */\n      tag_146\n      jump\t// in\n    tag_282:\n        /* \"#utility.yul\":11218:11219   */\n      0x01\n        /* \"#utility.yul\":11211:11216   */\n      dup2\n        /* \"#utility.yul\":11207:11220   */\n      add\n        /* \"#utility.yul\":11198:11220   */\n      swap1\n      pop\n        /* \"#utility.yul\":11174:11294   */\n      jump(tag_279)\n    tag_281:\n        /* \"#utility.yul\":11114:11300   */\n      pop\n      pop\n      jump\t// out\n        /* \"#utility.yul\":11306:11849   */\n    tag_148:\n        /* \"#utility.yul\":11407:11409   */\n      0x1f\n        /* \"#utility.yul\":11402:11405   */\n      dup3\n        /* \"#utility.yul\":11399:11410   */\n      gt\n        /* \"#utility.yul\":11396:11842   */\n      iszero\n      tag_284\n      jumpi\n        /* \"#utility.yul\":11441:11479   */\n      tag_285\n        /* \"#utility.yul\":11473:11478   */\n      dup2\n        /* \"#utility.yul\":11441:11479   */\n      tag_137\n      jump\t// in\n    tag_285:\n        /* \"#utility.yul\":11525:11554   */\n      tag_286\n        /* \"#utility.yul\":11543:11553   */\n      dup5\n        /* \"#utility.yul\":11525:11554   */\n      tag_138\n      jump\t// in\n    tag_286:\n        /* \"#utility.yul\":11515:11523   */\n      dup2\n        /* \"#utility.yul\":11511:11555   */\n      add\n        /* \"#utility.yul\":11708:11710   */\n      0x20\n        /* \"#utility.yul\":11696:11706   */\n      dup6\n        /* \"#utility.yul\":11693:11711   */\n      lt\n        /* \"#utility.yul\":11690:11739   */\n      iszero\n      tag_287\n      jumpi\n        /* \"#utility.yul\":11729:11737   */\n      dup2\n        /* \"#utility.yul\":11714:11737   */\n      swap1\n      pop\n        /* \"#utility.yul\":11690:11739   */\n    tag_287:\n        /* \"#utility.yul\":11752:11832   */\n      tag_288\n        /* \"#utility.yul\":11808:11830   */\n      tag_289\n        /* \"#utility.yul\":11826:11829   */\n      dup6\n        /* \"#utility.yul\":11808:11830   */\n      tag_138\n      jump\t// in\n    tag_289:\n        /* \"#utility.yul\":11798:11806   */\n      dup4\n        /* \"#utility.yul\":11794:11831   */\n      add\n        /* \"#utility.yul\":11781:11792   */\n      dup3\n        /* \"#utility.yul\":11752:11832   */\n      tag_147\n      jump\t// in\n    tag_288:\n        /* \"#utility.yul\":11411:11842   */\n      pop\n      pop\n        /* \"#utility.yul\":11396:11842   */\n    tag_284:\n        /* \"#utility.yul\":11306:11849   */\n      pop\n      pop\n      pop\n      jump\t// out\n        /* \"#utility.yul\":11855:11972   */\n    tag_149:\n        /* \"#utility.yul\":11909:11917   */\n      0x00\n        /* \"#utility.yul\":11959:11964   */\n      dup3\n        /* \"#utility.yul\":11953:11957   */\n      dup3\n        /* \"#utility.yul\":11949:11965   */\n      shr\n        /* \"#utility.yul\":11928:11965   */\n      swap1\n      pop\n        /* \"#utility.yul\":11855:11972   */\n      swap3\n      swap2\n      pop\n      pop\n      jump\t// out\n        /* \"#utility.yul\":11978:12147   */\n    tag_150:\n        /* \"#utility.yul\":12022:12028   */\n      0x00\n        /* \"#utility.yul\":12055:12106   */\n      tag_292\n        /* \"#utility.yul\":12103:12104   */\n      0x00\n        /* \"#utility.yul\":12099:12105   */\n      not\n        /* \"#utility.yul\":12091:12096   */\n      dup5\n        /* \"#utility.yul\":12088:12089   */\n      0x08\n        /* \"#utility.yul\":12084:12097   */\n      mul\n        /* \"#utility.yul\":12055:12106   */\n      tag_149\n      jump\t// in\n    tag_292:\n        /* \"#utility.yul\":12051:12107   */\n      not\n        /* \"#utility.yul\":12136:12140   */\n      dup1\n        /* \"#utility.yul\":12130:12134   */\n      dup4\n        /* \"#utility.yul\":12126:12141   */\n      and\n        /* \"#utility.yul\":12116:12141   */\n      swap2\n      pop\n        /* \"#utility.yul\":12029:12147   */\n      pop\n        /* \"#utility.yul\":11978:12147   */\n      swap3\n      swap2\n      pop\n      pop\n      jump\t// out\n        /* \"#utility.yul\":12152:12447   */\n    tag_151:\n        /* \"#utility.yul\":12228:12232   */\n      0x00\n        /* \"#utility.yul\":12374:12403   */\n      tag_294\n        /* \"#utility.yul\":12399:12402   */\n      dup4\n        /* \"#utility.yul\":12393:12397   */\n      dup4\n        /* \"#utility.yul\":12374:12403   */\n      tag_150\n      jump\t// in\n    tag_294:\n        /* \"#utility.yul\":12366:12403   */\n      swap2\n      pop\n        /* \"#utility.yul\":12436:12439   */\n      dup3\n        /* \"#utility.yul\":12433:12434   */\n      0x02\n        /* \"#utility.yul\":12429:12440   */\n      mul\n        /* \"#utility.yul\":12423:12427   */\n      dup3\n        /* \"#utility.yul\":12420:12441   */\n      or\n        /* \"#utility.yul\":12412:12441   */\n      swap1\n      pop\n        /* \"#utility.yul\":12152:12447   */\n      swap3\n      swap2\n      pop\n      pop\n      jump\t// out\n        /* \"#utility.yul\":12452:13847   */\n    tag_93:\n        /* \"#utility.yul\":12569:12606   */\n      tag_296\n        /* \"#utility.yul\":12602:12605   */\n      dup3\n        /* \"#utility.yul\":12569:12606   */\n      tag_120\n      jump\t// in\n    tag_296:\n        /* \"#utility.yul\":12671:12689   */\n      0xffffffffffffffff\n        /* \"#utility.yul\":12663:12669   */\n      dup2\n        /* \"#utility.yul\":12660:12690   */\n      gt\n        /* \"#utility.yul\":12657:12713   */\n      iszero\n      tag_297\n      jumpi\n        /* \"#utility.yul\":12693:12711   */\n      tag_298\n      tag_127\n      jump\t// in\n    tag_298:\n        /* \"#utility.yul\":12657:12713   */\n    tag_297:\n        /* \"#utility.yul\":12737:12775   */\n      tag_299\n        /* \"#utility.yul\":12769:12773   */\n      dup3\n        /* \"#utility.yul\":12763:12774   */\n      sload\n        /* \"#utility.yul\":12737:12775   */\n      tag_83\n      jump\t// in\n    tag_299:\n        /* \"#utility.yul\":12822:12889   */\n      tag_300\n        /* \"#utility.yul\":12882:12888   */\n      dup3\n        /* \"#utility.yul\":12874:12880   */\n      dup3\n        /* \"#utility.yul\":12868:12872   */\n      dup6\n        /* \"#utility.yul\":12822:12889   */\n      tag_148\n      jump\t// in\n    tag_300:\n        /* \"#utility.yul\":12916:12917   */\n      0x00\n        /* \"#utility.yul\":12940:12944   */\n      0x20\n        /* \"#utility.yul\":12927:12944   */\n      swap1\n      pop\n        /* \"#utility.yul\":12972:12974   */\n      0x1f\n        /* \"#utility.yul\":12964:12970   */\n      dup4\n        /* \"#utility.yul\":12961:12975   */\n      gt\n        /* \"#utility.yul\":12989:12990   */\n      0x01\n        /* \"#utility.yul\":12984:13602   */\n      dup2\n      eq\n      tag_302\n      jumpi\n        /* \"#utility.yul\":13646:13647   */\n      0x00\n        /* \"#utility.yul\":13663:13669   */\n      dup5\n        /* \"#utility.yul\":13660:13737   */\n      iszero\n      tag_303\n      jumpi\n        /* \"#utility.yul\":13712:13721   */\n      dup3\n        /* \"#utility.yul\":13707:13710   */\n      dup8\n        /* \"#utility.yul\":13703:13722   */\n      add\n        /* \"#utility.yul\":13697:13723   */\n      mload\n        /* \"#utility.yul\":13688:13723   */\n      swap1\n      pop\n        /* \"#utility.yul\":13660:13737   */\n    tag_303:\n        /* \"#utility.yul\":13763:13830   */\n      tag_304\n        /* \"#utility.yul\":13823:13829   */\n      dup6\n        /* \"#utility.yul\":13816:13821   */\n      dup3\n        /* \"#utility.yul\":13763:13830   */\n      tag_151\n      jump\t// in\n    tag_304:\n        /* \"#utility.yul\":13757:13761   */\n      dup7\n        /* \"#utility.yul\":13750:13831   */\n      sstore\n        /* \"#utility.yul\":13619:13841   */\n      pop\n        /* \"#utility.yul\":12954:13841   */\n      jump(tag_301)\n        /* \"#utility.yul\":12984:13602   */\n    tag_302:\n        /* \"#utility.yul\":13036:13040   */\n      0x1f\n        /* \"#utility.yul\":13032:13041   */\n      not\n        /* \"#utility.yul\":13024:13030   */\n      dup5\n        /* \"#utility.yul\":13020:13042   */\n      and\n        /* \"#utility.yul\":13070:13107   */\n      tag_305\n        /* \"#utility.yul\":13102:13106   */\n      dup7\n        /* \"#utility.yul\":13070:13107   */\n      tag_137\n      jump\t// in\n    tag_305:\n        /* \"#utility.yul\":13129:13130   */\n      0x00\n        /* \"#utility.yul\":13143:13351   */\n    tag_306:\n        /* \"#utility.yul\":13157:13164   */\n      dup3\n        /* \"#utility.yul\":13154:13155   */\n      dup2\n        /* \"#utility.yul\":13151:13165   */\n      lt\n        /* \"#utility.yul\":13143:13351   */\n      iszero\n      tag_308\n      jumpi\n        /* \"#utility.yul\":13236:13245   */\n      dup5\n        /* \"#utility.yul\":13231:13234   */\n      dup10\n        /* \"#utility.yul\":13227:13246   */\n      add\n        /* \"#utility.yul\":13221:13247   */\n      mload\n        /* \"#utility.yul\":13213:13219   */\n      dup3\n        /* \"#utility.yul\":13206:13248   */\n      sstore\n        /* \"#utility.yul\":13287:13288   */\n      0x01\n        /* \"#utility.yul\":13279:13285   */\n      dup3\n        /* \"#utility.yul\":13275:13289   */\n      add\n        /* \"#utility.yul\":13265:13289   */\n      swap2\n      pop\n        /* \"#utility.yul\":13334:13336   */\n      0x20\n        /* \"#utility.yul\":13323:13332   */\n      dup6\n        /* \"#utility.yul\":13319:13337   */\n      add\n        /* \"#utility.yul\":13306:13337   */\n      swap5\n      pop\n        /* \"#utility.yul\":13180:13184   */\n      0x20\n        /* \"#utility.yul\":13177:13178   */\n      dup2\n        /* \"#utility.yul\":13173:13185   */\n      add\n        /* \"#utility.yul\":13168:13185   */\n      swap1\n      pop\n        /* \"#utility.yul\":13143:13351   */\n      jump(tag_306)\n    tag_308:\n        /* \"#utility.yul\":13379:13385   */\n      dup7\n        /* \"#utility.yul\":13370:13377   */\n      dup4\n        /* \"#utility.yul\":13367:13386   */\n      lt\n        /* \"#utility.yul\":13364:13543   */\n      iszero\n      tag_309\n      jumpi\n        /* \"#utility.yul\":13437:13446   */\n      dup5\n        /* \"#utility.yul\":13432:13435   */\n      dup10\n        /* \"#utility.yul\":13428:13447   */\n      add\n        /* \"#utility.yul\":13422:13448   */\n      mload\n        /* \"#utility.yul\":13480:13528   */\n      tag_310\n        /* \"#utility.yul\":13522:13526   */\n      0x1f\n        /* \"#utility.yul\":13514:13520   */\n      dup10\n        /* \"#utility.yul\":13510:13527   */\n      and\n        /* \"#utility.yul\":13499:13508   */\n      dup3\n        /* \"#utility.yul\":13480:13528   */\n      tag_150\n      jump\t// in\n    tag_310:\n        /* \"#utility.yul\":13472:13478   */\n      dup4\n        /* \"#utility.yul\":13465:13529   */\n      sstore\n        /* \"#utility.yul\":13387:13543   */\n      pop\n        /* \"#utility.yul\":13364:13543   */\n    tag_309:\n        /* \"#utility.yul\":13589:13590   */\n      0x01\n        /* \"#utility.yul\":13585:13586   */\n      0x02\n        /* \"#utility.yul\":13577:13583   */\n      dup9\n        /* \"#utility.yul\":13573:13587   */\n      mul\n        /* \"#utility.yul\":13569:13591   */\n      add\n        /* \"#utility.yul\":13563:13567   */\n      dup9\n        /* \"#utility.yul\":13556:13592   */\n      sstore\n        /* \"#utility.yul\":12991:13602   */\n      pop\n      pop\n      pop\n        /* \"#utility.yul\":12954:13841   */\n    tag_301:\n      pop\n        /* \"#utility.yul\":12544:13847   */\n      pop\n      pop\n      pop\n        /* \"#utility.yul\":12452:13847   */\n      pop\n      pop\n      jump\t// out\n        /* \"#utility.yul\":13853:14086   */\n    tag_97:\n        /* \"#utility.yul\":13892:13895   */\n      0x00\n        /* \"#utility.yul\":13915:13939   */\n      tag_312\n        /* \"#utility.yul\":13933:13938   */\n      dup3\n        /* \"#utility.yul\":13915:13939   */\n      tag_109\n      jump\t// in\n    tag_312:\n        /* \"#utility.yul\":13906:13939   */\n      swap2\n      pop\n        /* \"#utility.yul\":13961:14027   */\n      0xffffffffffffffffffffffffffffffffffffffffffffffffffffffffffffffff\n        /* \"#utility.yul\":13954:13959   */\n      dup3\n        /* \"#utility.yul\":13951:14028   */\n      sub\n        /* \"#utility.yul\":13948:14051   */\n      tag_313\n      jumpi\n        /* \"#utility.yul\":14031:14049   */\n      tag_314\n      tag_135\n      jump\t// in\n    tag_314:\n        /* \"#utility.yul\":13948:14051   */\n    tag_313:\n        /* \"#utility.yul\":14078:14079   */\n      0x01\n        /* \"#utility.yul\":14071:14076   */\n      dup3\n        /* \"#utility.yul\":14067:14080   */\n      add\n        /* \"#utility.yul\":14060:14080   */\n      swap1\n      pop\n        /* \"#utility.yul\":13853:14086   */\n      swap2\n      swap1\n      pop\n      jump\t// out\n\n    auxdata: 0xa2646970667358221220835774f009c295860d1df4acc47aa562589f8a87e6fcfd151c86dfb21809bb5564736f6c634300081a0033\n}\n","bytecode":{"linkReferences":{},"object":"608060405234801561000f575f80fd5b5060405161117738038061117783398181016040528101906100319190610110565b8060015f6101000a81548173ffffffffffffffffffffffffffffffffffffffff021916908373ffffffffffffffffffffffffffffffffffffffff16021790555081600281905550505061014e565b5f80fd5b5f819050919050565b61009581610083565b811461009f575f80fd5b50565b5f815190506100b08161008c565b92915050565b5f73ffffffffffffffffffffffffffffffffffffffff82169050919050565b5f6100df826100b6565b9050919050565b6100ef816100d5565b81146100f9575f80fd5b50565b5f8151905061010a816100e6565b92915050565b5f80604083850312156101265761012561007f565b5b5f610133858286016100a2565b9250506020610144858286016100fc565b9150509250929050565b61101c8061015b5f395ff3fe60806040526004361061009b575f3560e01c806382fde0931161006357806382fde093146101975780638a9cfd55146101c1578063937e09b1146101e9578063d7bb99ba14610213578063d7d1bbdb1461021d578063f146b3d0146102455761009b565b8063034410061461009f5780630a144391146100c75780633410452a14610103578063481c6a751461012d57806381d12c5814610157575b5f80fd5b3480156100aa575f80fd5b506100c560048036038101906100c0919061083b565b610273565b005b3480156100d2575f80fd5b506100ed60048036038101906100e891906108c0565b6103b1565b6040516100fa9190610905565b60405180910390f35b34801561010e575f80fd5b506101176103ce565b604051610124919061092d565b60405180910390f35b348015610138575f80fd5b506101416103d9565b60405161014e9190610955565b60405180910390f35b348015610162575f80fd5b5061017d6004803603810190610178919061083b565b6103fe565b60405161018e9594939291906109de565b60405180910390f35b3480156101a2575f80fd5b506101ab6104f0565b6040516101b8919061092d565b60405180910390f35b3480156101cc575f80fd5b506101e760048036038101906101e29190610b62565b6104f6565b005b3480156101f4575f80fd5b506101fd6105f5565b60405161020a919061092d565b60405180910390f35b61021b6105fb565b005b348015610228575f80fd5b50610243600480360381019061023e919061083b565b610676565b005b348015610250575f80fd5b506102596107b3565b60405161026a959493929190610bce565b60405180910390f35b60015f9054906101000a900473ffffffffffffffffffffffffffffffffffffffff1673ffffffffffffffffffffffffffffffffffffffff163373ffffffffffffffffffffffffffffffffffffffff16146102cb575f80fd5b5f8082815481106102df576102de610c1f565b5b905f5260205f209060050201905060026004546102fc9190610ca6565b81600301541161030a575f80fd5b8060020160149054906101000a900460ff1615610325575f80fd5b806002015f9054906101000a900473ffffffffffffffffffffffffffffffffffffffff1673ffffffffffffffffffffffffffffffffffffffff166108fc826001015490811502906040515f60405180830381858888f1935050505015801561038f573d5f803e3d5ffd5b5060018160020160146101000a81548160ff0219169083151502179055505050565b6003602052805f5260405f205f915054906101000a900460ff1681565b5f8080549050905090565b60015f9054906101000a900473ffffffffffffffffffffffffffffffffffffffff1681565b5f818154811061040c575f80fd5b905f5260205f2090600502015f91509050805f01805461042b90610d03565b80601f016020809104026020016040519081016040528092919081815260200182805461045790610d03565b80156104a25780601f10610479576101008083540402835291602001916104a2565b820191905f5260205f20905b81548152906001019060200180831161048557829003601f168201915b505050505090806001015490806002015f9054906101000a900473ffffffffffffffffffffffffffffffffffffffff16908060020160149054906101000a900460ff16908060030154905085565b60045481565b60015f9054906101000a900473ffffffffffffffffffffffffffffffffffffffff1673ffffffffffffffffffffffffffffffffffffffff163373ffffffffffffffffffffffffffffffffffffffff161461054e575f80fd5b5f8060018160018154018082558091505003905f5260205f209060050201905083815f01908161057e9190610ed0565b5082816001018190555081816002015f6101000a81548173ffffffffffffffffffffffffffffffffffffffff021916908373ffffffffffffffffffffffffffffffffffffffff1602179055505f8160020160146101000a81548160ff0219169083151502179055505f816003018190555050505050565b60025481565b6002543411610608575f80fd5b600160035f3373ffffffffffffffffffffffffffffffffffffffff1673ffffffffffffffffffffffffffffffffffffffff1681526020019081526020015f205f6101000a81548160ff02191690831515021790555060045f81548092919061066f90610f9f565b9190505550565b5f80828154811061068a57610689610c1f565b5b905f5260205f209060050201905060035f3373ffffffffffffffffffffffffffffffffffffffff1673ffffffffffffffffffffffffffffffffffffffff1681526020019081526020015f205f9054906101000a900460ff166106ea575f80fd5b806004015f3373ffffffffffffffffffffffffffffffffffffffff1673ffffffffffffffffffffffffffffffffffffffff1681526020019081526020015f205f9054906101000a900460ff161561073f575f80fd5b6001816004015f3373ffffffffffffffffffffffffffffffffffffffff1673ffffffffffffffffffffffffffffffffffffffff1681526020019081526020015f205f6101000a81548160ff021916908315150217905550806003015f8154809291906107aa90610f9f565b91905055505050565b5f805f805f600254475f8054905060045460015f9054906101000a900473ffffffffffffffffffffffffffffffffffffffff16945094509450945094509091929394565b5f604051905090565b5f80fd5b5f80fd5b5f819050919050565b61081a81610808565b8114610824575f80fd5b50565b5f8135905061083581610811565b92915050565b5f602082840312156108505761084f610800565b5b5f61085d84828501610827565b91505092915050565b5f73ffffffffffffffffffffffffffffffffffffffff82169050919050565b5f61088f82610866565b9050919050565b61089f81610885565b81146108a9575f80fd5b50565b5f813590506108ba81610896565b92915050565b5f602082840312156108d5576108d4610800565b5b5f6108e2848285016108ac565b91505092915050565b5f8115159050919050565b6108ff816108eb565b82525050565b5f6020820190506109185f8301846108f6565b92915050565b61092781610808565b82525050565b5f6020820190506109405f83018461091e565b92915050565b61094f81610885565b82525050565b5f6020820190506109685f830184610946565b92915050565b5f81519050919050565b5f82825260208201905092915050565b8281835e5f83830152505050565b5f601f19601f8301169050919050565b5f6109b08261096e565b6109ba8185610978565b93506109ca818560208601610988565b6109d381610996565b840191505092915050565b5f60a0820190508181035f8301526109f681886109a6565b9050610a05602083018761091e565b610a126040830186610946565b610a1f60608301856108f6565b610a2c608083018461091e565b9695505050505050565b5f80fd5b5f80fd5b7f4e487b71000000000000000000000000000000000000000000000000000000005f52604160045260245ffd5b610a7482610996565b810181811067ffffffffffffffff82111715610a9357610a92610a3e565b5b80604052505050565b5f610aa56107f7565b9050610ab18282610a6b565b919050565b5f67ffffffffffffffff821115610ad057610acf610a3e565b5b610ad982610996565b9050602081019050919050565b828183375f83830152505050565b5f610b06610b0184610ab6565b610a9c565b905082815260208101848484011115610b2257610b21610a3a565b5b610b2d848285610ae6565b509392505050565b5f82601f830112610b4957610b48610a36565b5b8135610b59848260208601610af4565b91505092915050565b5f805f60608486031215610b7957610b78610800565b5b5f84013567ffffffffffffffff811115610b9657610b95610804565b5b610ba286828701610b35565b9350506020610bb386828701610827565b9250506040610bc4868287016108ac565b9150509250925092565b5f60a082019050610be15f83018861091e565b610bee602083018761091e565b610bfb604083018661091e565b610c08606083018561091e565b610c156080830184610946565b9695505050505050565b7f4e487b71000000000000000000000000000000000000000000000000000000005f52603260045260245ffd5b7f4e487b71000000000000000000000000000000000000000000000000000000005f52601260045260245ffd5b7f4e487b71000000000000000000000000000000000000000000000000000000005f52601160045260245ffd5b5f610cb082610808565b9150610cbb83610808565b925082610ccb57610cca610c4c565b5b828204905092915050565b7f4e487b71000000000000000000000000000000000000000000000000000000005f52602260045260245ffd5b5f6002820490506001821680610d1a57607f821691505b602082108103610d2d57610d2c610cd6565b5b50919050565b5f819050815f5260205f209050919050565b5f6020601f8301049050919050565b5f82821b905092915050565b5f60088302610d8f7fffffffffffffffffffffffffffffffffffffffffffffffffffffffffffffffff82610d54565b610d998683610d54565b95508019841693508086168417925050509392505050565b5f819050919050565b5f610dd4610dcf610dca84610808565b610db1565b610808565b9050919050565b5f819050919050565b610ded83610dba565b610e01610df982610ddb565b848454610d60565b825550505050565b5f90565b610e15610e09565b610e20818484610de4565b505050565b5b81811015610e4357610e385f82610e0d565b600181019050610e26565b5050565b601f821115610e8857610e5981610d33565b610e6284610d45565b81016020851015610e71578190505b610e85610e7d85610d45565b830182610e25565b50505b505050565b5f82821c905092915050565b5f610ea85f1984600802610e8d565b1980831691505092915050565b5f610ec08383610e99565b9150826002028217905092915050565b610ed98261096e565b67ffffffffffffffff811115610ef257610ef1610a3e565b5b610efc8254610d03565b610f07828285610e47565b5f60209050601f831160018114610f38575f8415610f26578287015190505b610f308582610eb5565b865550610f97565b601f198416610f4686610d33565b5f5b82811015610f6d57848901518255600182019150602085019450602081019050610f48565b86831015610f8a5784890151610f86601f891682610e99565b8355505b6001600288020188555050505b505050505050565b5f610fa982610808565b91507fffffffffffffffffffffffffffffffffffffffffffffffffffffffffffffffff8203610fdb57610fda610c79565b5b60018201905091905056fea2646970667358221220835774f009c295860d1df4acc47aa562589f8a87e6fcfd151c86dfb21809bb5564736f6c634300081a0033","opcodes":"PUSH1 0x80 PUSH1 0x40 MSTORE CALLVALUE DUP1 ISZERO PUSH2 0xF JUMPI PUSH0 DUP1 REVERT JUMPDEST POP PUSH1 0x40 MLOAD PUSH2 0x1177 CODESIZE SUB DUP1 PUSH2 0x1177 DUP4 CODECOPY DUP2 DUP2 ADD PUSH1 0x40 MSTORE DUP2 ADD SWAP1 PUSH2 0x31 SWAP2 SWAP1 PUSH2 0x110 JUMP JUMPDEST DUP1 PUSH1 0x1 PUSH0 PUSH2 0x100 EXP DUP2 SLOAD DUP2 PUSH20 0xFFFFFFFFFFFFFFFFFFFFFFFFFFFFFFFFFFFFFFFF MUL NOT AND SWAP1 DUP4 PUSH20 0xFFFFFFFFFFFFFFFFFFFFFFFFFFFFFFFFFFFFFFFF AND MUL OR SWAP1 SSTORE POP DUP2 PUSH1 0x2 DUP2 SWAP1 SSTORE POP POP POP PUSH2 0x14E JUMP JUMPDEST PUSH0 DUP1 REVERT JUMPDEST PUSH0 DUP2 SWAP1 POP SWAP2 SWAP1 POP JUMP JUMPDEST PUSH2 0x95 DUP2 PUSH2 0x83 JUMP JUMPDEST DUP2 EQ PUSH2 0x9F JUMPI PUSH0 DUP1 REVERT JUMPDEST POP JUMP JUMPDEST PUSH0 DUP2 MLOAD SWAP1 POP PUSH2 0xB0 DUP2 PUSH2 0x8C JUMP JUMPDEST SWAP3 SWAP2 POP POP JUMP JUMPDEST PUSH0 PUSH20 0xFFFFFFFFFFFFFFFFFFFFFFFFFFFFFFFFFFFFFFFF DUP3 AND SWAP1 POP SWAP2 SWAP1 POP JUMP JUMPDEST PUSH0 PUSH2 0xDF DUP3 PUSH2 0xB6 JUMP JUMPDEST SWAP1 POP SWAP2 SWAP1 POP JUMP JUMPDEST PUSH2 0xEF DUP2 PUSH2 0xD5 JUMP JUMPDEST DUP2 EQ PUSH2 0xF9 JUMPI PUSH0 DUP1 REVERT JUMPDEST POP JUMP JUMPDEST PUSH0 DUP2 MLOAD SWAP1 POP PUSH2 0x10A DUP2 PUSH2 0xE6 JUMP JUMPDEST SWAP3 SWAP2 POP POP JUMP JUMPDEST PUSH0 DUP1 PUSH1 0x40 DUP4 DUP6 SUB SLT ISZERO PUSH2 0x126 JUMPI PUSH2 0x125 PUSH2 0x7F JUMP JUMPDEST JUMPDEST PUSH0 PUSH2 0x133 DUP6 DUP3 DUP7 ADD PUSH2 0xA2 JUMP JUMPDEST SWAP3 POP POP PUSH1 0x20 PUSH2 0x144 DUP6 DUP3 DUP7 ADD PUSH2 0xFC JUMP JUMPDEST SWAP2 POP POP SWAP3 POP SWAP3 SWAP1 POP JUMP JUMPDEST PUSH2 0x101C DUP1 PUSH2 0x15B PUSH0 CODECOPY PUSH0 RETURN INVALID PUSH1 0x80 PUSH1 0x40 MSTORE PUSH1 0x4 CALLDATASIZE LT PUSH2 0x9B JUMPI PUSH0 CALLDATALOAD PUSH1 0xE0 SHR DUP1 PUSH4 0x82FDE093 GT PUSH2 0x63 JUMPI DUP1 PUSH4 0x82FDE093 EQ PUSH2 0x197 JUMPI DUP1 PUSH4 0x8A9CFD55 EQ PUSH2 0x1C1 JUMPI DUP1 PUSH4 0x937E09B1 EQ PUSH2 0x1E9 JUMPI DUP1 PUSH4 0xD7BB99BA EQ PUSH2 0x213 JUMPI DUP1 PUSH4 0xD7D1BBDB EQ PUSH2 0x21D JUMPI DUP1 PUSH4 0xF146B3D0 EQ PUSH2 0x245 JUMPI PUSH2 0x9B JUMP JUMPDEST DUP1 PUSH4 0x3441006 EQ PUSH2 0x9F JUMPI DUP1 PUSH4 0xA144391 EQ PUSH2 0xC7 JUMPI DUP1 PUSH4 0x3410452A EQ PUSH2 0x103 JUMPI DUP1 PUSH4 0x481C6A75 EQ PUSH2 0x12D JUMPI DUP1 PUSH4 0x81D12C58 EQ PUSH2 0x157 JUMPI JUMPDEST PUSH0 DUP1 REVERT JUMPDEST CALLVALUE DUP1 ISZERO PUSH2 0xAA JUMPI PUSH0 DUP1 REVERT JUMPDEST POP PUSH2 0xC5 PUSH1 0x4 DUP1 CALLDATASIZE SUB DUP2 ADD SWAP1 PUSH2 0xC0 SWAP2 SWAP1 PUSH2 0x83B JUMP JUMPDEST PUSH2 0x273 JUMP JUMPDEST STOP JUMPDEST CALLVALUE DUP1 ISZERO PUSH2 0xD2 JUMPI PUSH0 DUP1 REVERT JUMPDEST POP PUSH2 0xED PUSH1 0x4 DUP1 CALLDATASIZE SUB DUP2 ADD SWAP1 PUSH2 0xE8 SWAP2 SWAP1 PUSH2 0x8C0 JUMP JUMPDEST PUSH2 0x3B1 JUMP JUMPDEST PUSH1 0x40 MLOAD PUSH2 0xFA SWAP2 SWAP1 PUSH2 0x905 JUMP JUMPDEST PUSH1 0x40 MLOAD DUP1 SWAP2 SUB SWAP1 RETURN JUMPDEST CALLVALUE DUP1 ISZERO PUSH2 0x10E JUMPI PUSH0 DUP1 REVERT JUMPDEST POP PUSH2 0x117 PUSH2 0x3CE JUMP JUMPDEST PUSH1 0x40 MLOAD PUSH2 0x124 SWAP2 SWAP1 PUSH2 0x92D JUMP JUMPDEST PUSH1 0x40 MLOAD DUP1 SWAP2 SUB SWAP1 RETURN JUMPDEST CALLVALUE DUP1 ISZERO PUSH2 0x138 JUMPI PUSH0 DUP1 REVERT JUMPDEST POP PUSH2 0x141 PUSH2 0x3D9 JUMP JUMPDEST PUSH1 0x40 MLOAD PUSH2 0x14E SWAP2 SWAP1 PUSH2 0x955 JUMP JUMPDEST PUSH1 0x40 MLOAD DUP1 SWAP2 SUB SWAP1 RETURN JUMPDEST CALLVALUE DUP1 ISZERO PUSH2 0x162 JUMPI PUSH0 DUP1 REVERT JUMPDEST POP PUSH2 0x17D PUSH1 0x4 DUP1 CALLDATASIZE SUB DUP2 ADD SWAP1 PUSH2 0x178 SWAP2 SWAP1 PUSH2 0x83B JUMP JUMPDEST PUSH2 0x3FE JUMP JUMPDEST PUSH1 0x40 MLOAD PUSH2 0x18E SWAP6 SWAP5 SWAP4 SWAP3 SWAP2 SWAP1 PUSH2 0x9DE JUMP JUMPDEST PUSH1 0x40 MLOAD DUP1 SWAP2 SUB SWAP1 RETURN JUMPDEST CALLVALUE DUP1 ISZERO PUSH2 0x1A2 JUMPI PUSH0 DUP1 REVERT JUMPDEST POP PUSH2 0x1AB PUSH2 0x4F0 JUMP JUMPDEST PUSH1 0x40 MLOAD PUSH2 0x1B8 SWAP2 SWAP1 PUSH2 0x92D JUMP JUMPDEST PUSH1 0x40 MLOAD DUP1 SWAP2 SUB SWAP1 RETURN JUMPDEST CALLVALUE DUP1 ISZERO PUSH2 0x1CC JUMPI PUSH0 DUP1 REVERT JUMPDEST POP PUSH2 0x1E7 PUSH1 0x4 DUP1 CALLDATASIZE SUB DUP2 ADD SWAP1 PUSH2 0x1E2 SWAP2 SWAP1 PUSH2 0xB62 JUMP JUMPDEST PUSH2 0x4F6 JUMP JUMPDEST STOP JUMPDEST CALLVALUE DUP1 ISZERO PUSH2 0x1F4 JUMPI PUSH0 DUP1 REVERT JUMPDEST POP PUSH2 0x1FD PUSH2 0x5F5 JUMP JUMPDEST PUSH1 0x40 MLOAD PUSH2 0x20A SWAP2 SWAP1 PUSH2 0x92D JUMP JUMPDEST PUSH1 0x40 MLOAD DUP1 SWAP2 SUB SWAP1 RETURN JUMPDEST PUSH2 0x21B PUSH2 0x5FB JUMP JUMPDEST STOP JUMPDEST CALLVALUE DUP1 ISZERO PUSH2 0x228 JUMPI PUSH0 DUP1 REVERT JUMPDEST POP PUSH2 0x243 PUSH1 0x4 DUP1 CALLDATASIZE SUB DUP2 ADD SWAP1 PUSH2 0x23E SWAP2 SWAP1 PUSH2 0x83B JUMP JUMPDEST PUSH2 0x676 JUMP JUMPDEST STOP JUMPDEST CALLVALUE DUP1 ISZERO PUSH2 0x250 JUMPI PUSH0 DUP1 REVERT JUMPDEST POP PUSH2 0x259 PUSH2 0x7B3 JUMP JUMPDEST PUSH1 0x40 MLOAD PUSH2 0x26A SWAP6 SWAP5 SWAP4 SWAP3 SWAP2 SWAP1 PUSH2 0xBCE JUMP JUMPDEST PUSH1 0x40 MLOAD DUP1 SWAP2 SUB SWAP1 RETURN JUMPDEST PUSH1 0x1 PUSH0 SWAP1 SLOAD SWAP1 PUSH2 0x100 EXP SWAP1 DIV PUSH20 0xFFFFFFFFFFFFFFFFFFFFFFFFFFFFFFFFFFFFFFFF AND PUSH20 0xFFFFFFFFFFFFFFFFFFFFFFFFFFFFFFFFFFFFFFFF AND CALLER PUSH20 0xFFFFFFFFFFFFFFFFFFFFFFFFFFFFFFFFFFFFFFFF AND EQ PUSH2 0x2CB JUMPI PUSH0 DUP1 REVERT JUMPDEST PUSH0 DUP1 DUP3 DUP2 SLOAD DUP2 LT PUSH2 0x2DF JUMPI PUSH2 0x2DE PUSH2 0xC1F JUMP JUMPDEST JUMPDEST SWAP1 PUSH0 MSTORE PUSH1 0x20 PUSH0 KECCAK256 SWAP1 PUSH1 0x5 MUL ADD SWAP1 POP PUSH1 0x2 PUSH1 0x4 SLOAD PUSH2 0x2FC SWAP2 SWAP1 PUSH2 0xCA6 JUMP JUMPDEST DUP2 PUSH1 0x3 ADD SLOAD GT PUSH2 0x30A JUMPI PUSH0 DUP1 REVERT JUMPDEST DUP1 PUSH1 0x2 ADD PUSH1 0x14 SWAP1 SLOAD SWAP1 PUSH2 0x100 EXP SWAP1 DIV PUSH1 0xFF AND ISZERO PUSH2 0x325 JUMPI PUSH0 DUP1 REVERT JUMPDEST DUP1 PUSH1 0x2 ADD PUSH0 SWAP1 SLOAD SWAP1 PUSH2 0x100 EXP SWAP1 DIV PUSH20 0xFFFFFFFFFFFFFFFFFFFFFFFFFFFFFFFFFFFFFFFF AND PUSH20 0xFFFFFFFFFFFFFFFFFFFFFFFFFFFFFFFFFFFFFFFF AND PUSH2 0x8FC DUP3 PUSH1 0x1 ADD SLOAD SWAP1 DUP2 ISZERO MUL SWAP1 PUSH1 0x40 MLOAD PUSH0 PUSH1 0x40 MLOAD DUP1 DUP4 SUB DUP2 DUP6 DUP9 DUP9 CALL SWAP4 POP POP POP POP ISZERO DUP1 ISZERO PUSH2 0x38F JUMPI RETURNDATASIZE PUSH0 DUP1 RETURNDATACOPY RETURNDATASIZE PUSH0 REVERT JUMPDEST POP PUSH1 0x1 DUP2 PUSH1 0x2 ADD PUSH1 0x14 PUSH2 0x100 EXP DUP2 SLOAD DUP2 PUSH1 0xFF MUL NOT AND SWAP1 DUP4 ISZERO ISZERO MUL OR SWAP1 SSTORE POP POP POP JUMP JUMPDEST PUSH1 0x3 PUSH1 0x20 MSTORE DUP1 PUSH0 MSTORE PUSH1 0x40 PUSH0 KECCAK256 PUSH0 SWAP2 POP SLOAD SWAP1 PUSH2 0x100 EXP SWAP1 DIV PUSH1 0xFF AND DUP2 JUMP JUMPDEST PUSH0 DUP1 DUP1 SLOAD SWAP1 POP SWAP1 POP SWAP1 JUMP JUMPDEST PUSH1 0x1 PUSH0 SWAP1 SLOAD SWAP1 PUSH2 0x100 EXP SWAP1 DIV PUSH20 0xFFFFFFFFFFFFFFFFFFFFFFFFFFFFFFFFFFFFFFFF AND DUP2 JUMP JUMPDEST PUSH0 DUP2 DUP2 SLOAD DUP2 LT PUSH2 0x40C JUMPI PUSH0 DUP1 REVERT JUMPDEST SWAP1 PUSH0 MSTORE PUSH1 0x20 PUSH0 KECCAK256 SWAP1 PUSH1 0x5 MUL ADD PUSH0 SWAP2 POP SWAP1 POP DUP1 PUSH0 ADD DUP1 SLOAD PUSH2 0x42B SWAP1 PUSH2 0xD03 JUMP JUMPDEST DUP1 PUSH1 0x1F ADD PUSH1 0x20 DUP1 SWAP2 DIV MUL PUSH1 0x20 ADD PUSH1 0x40 MLOAD SWAP1 DUP2 ADD PUSH1 0x40 MSTORE DUP1 SWAP3 SWAP2 SWAP1 DUP2 DUP2 MSTORE PUSH1 0x20 ADD DUP3 DUP1 SLOAD PUSH2 0x457 SWAP1 PUSH2 0xD03 JUMP JUMPDEST DUP1 ISZERO PUSH2 0x4A2 JUMPI DUP1 PUSH1 0x1F LT PUSH2 0x479 JUMPI PUSH2 0x100 DUP1 DUP4 SLOAD DIV MUL DUP4 MSTORE SWAP2 PUSH1 0x20 ADD SWAP2 PUSH2 0x4A2 JUMP JUMPDEST DUP3 ADD SWAP2 SWAP1 PUSH0 MSTORE PUSH1 0x20 PUSH0 KECCAK256 SWAP1 JUMPDEST DUP2 SLOAD DUP2 MSTORE SWAP1 PUSH1 0x1 ADD SWAP1 PUSH1 0x20 ADD DUP1 DUP4 GT PUSH2 0x485 JUMPI DUP3 SWAP1 SUB PUSH1 0x1F AND DUP3 ADD SWAP2 JUMPDEST POP POP POP POP POP SWAP1 DUP1 PUSH1 0x1 ADD SLOAD SWAP1 DUP1 PUSH1 0x2 ADD PUSH0 SWAP1 SLOAD SWAP1 PUSH2 0x100 EXP SWAP1 DIV PUSH20 0xFFFFFFFFFFFFFFFFFFFFFFFFFFFFFFFFFFFFFFFF AND SWAP1 DUP1 PUSH1 0x2 ADD PUSH1 0x14 SWAP1 SLOAD SWAP1 PUSH2 0x100 EXP SWAP1 DIV PUSH1 0xFF AND SWAP1 DUP1 PUSH1 0x3 ADD SLOAD SWAP1 POP DUP6 JUMP JUMPDEST PUSH1 0x4 SLOAD DUP2 JUMP JUMPDEST PUSH1 0x1 PUSH0 SWAP1 SLOAD SWAP1 PUSH2 0x100 EXP SWAP1 DIV PUSH20 0xFFFFFFFFFFFFFFFFFFFFFFFFFFFFFFFFFFFFFFFF AND PUSH20 0xFFFFFFFFFFFFFFFFFFFFFFFFFFFFFFFFFFFFFFFF AND CALLER PUSH20 0xFFFFFFFFFFFFFFFFFFFFFFFFFFFFFFFFFFFFFFFF AND EQ PUSH2 0x54E JUMPI PUSH0 DUP1 REVERT JUMPDEST PUSH0 DUP1 PUSH1 0x1 DUP2 PUSH1 0x1 DUP2 SLOAD ADD DUP1 DUP3 SSTORE DUP1 SWAP2 POP POP SUB SWAP1 PUSH0 MSTORE PUSH1 0x20 PUSH0 KECCAK256 SWAP1 PUSH1 0x5 MUL ADD SWAP1 POP DUP4 DUP2 PUSH0 ADD SWAP1 DUP2 PUSH2 0x57E SWAP2 SWAP1 PUSH2 0xED0 JUMP JUMPDEST POP DUP3 DUP2 PUSH1 0x1 ADD DUP2 SWAP1 SSTORE POP DUP2 DUP2 PUSH1 0x2 ADD PUSH0 PUSH2 0x100 EXP DUP2 SLOAD DUP2 PUSH20 0xFFFFFFFFFFFFFFFFFFFFFFFFFFFFFFFFFFFFFFFF MUL NOT AND SWAP1 DUP4 PUSH20 0xFFFFFFFFFFFFFFFFFFFFFFFFFFFFFFFFFFFFFFFF AND MUL OR SWAP1 SSTORE POP PUSH0 DUP2 PUSH1 0x2 ADD PUSH1 0x14 PUSH2 0x100 EXP DUP2 SLOAD DUP2 PUSH1 0xFF MUL NOT AND SWAP1 DUP4 ISZERO ISZERO MUL OR SWAP1 SSTORE POP PUSH0 DUP2 PUSH1 0x3 ADD DUP2 SWAP1 SSTORE POP POP POP POP POP JUMP JUMPDEST PUSH1 0x2 SLOAD DUP2 JUMP JUMPDEST PUSH1 0x2 SLOAD CALLVALUE GT PUSH2 0x608 JUMPI PUSH0 DUP1 REVERT JUMPDEST PUSH1 0x1 PUSH1 0x3 PUSH0 CALLER PUSH20 0xFFFFFFFFFFFFFFFFFFFFFFFFFFFFFFFFFFFFFFFF AND PUSH20 0xFFFFFFFFFFFFFFFFFFFFFFFFFFFFFFFFFFFFFFFF AND DUP2 MSTORE PUSH1 0x20 ADD SWAP1 DUP2 MSTORE PUSH1 0x20 ADD PUSH0 KECCAK256 PUSH0 PUSH2 0x100 EXP DUP2 SLOAD DUP2 PUSH1 0xFF MUL NOT AND SWAP1 DUP4 ISZERO ISZERO MUL OR SWAP1 SSTORE POP PUSH1 0x4 PUSH0 DUP2 SLOAD DUP1 SWAP3 SWAP2 SWAP1 PUSH2 0x66F SWAP1 PUSH2 0xF9F JUMP JUMPDEST SWAP2 SWAP1 POP SSTORE POP JUMP JUMPDEST PUSH0 DUP1 DUP3 DUP2 SLOAD DUP2 LT PUSH2 0x68A JUMPI PUSH2 0x689 PUSH2 0xC1F JUMP JUMPDEST JUMPDEST SWAP1 PUSH0 MSTORE PUSH1 0x20 PUSH0 KECCAK256 SWAP1 PUSH1 0x5 MUL ADD SWAP1 POP PUSH1 0x3 PUSH0 CALLER PUSH20 0xFFFFFFFFFFFFFFFFFFFFFFFFFFFFFFFFFFFFFFFF AND PUSH20 0xFFFFFFFFFFFFFFFFFFFFFFFFFFFFFFFFFFFFFFFF AND DUP2 MSTORE PUSH1 0x20 ADD SWAP1 DUP2 MSTORE PUSH1 0x20 ADD PUSH0 KECCAK256 PUSH0 SWAP1 SLOAD SWAP1 PUSH2 0x100 EXP SWAP1 DIV PUSH1 0xFF AND PUSH2 0x6EA JUMPI PUSH0 DUP1 REVERT JUMPDEST DUP1 PUSH1 0x4 ADD PUSH0 CALLER PUSH20 0xFFFFFFFFFFFFFFFFFFFFFFFFFFFFFFFFFFFFFFFF AND PUSH20 0xFFFFFFFFFFFFFFFFFFFFFFFFFFFFFFFFFFFFFFFF AND DUP2 MSTORE PUSH1 0x20 ADD SWAP1 DUP2 MSTORE PUSH1 0x20 ADD PUSH0 KECCAK256 PUSH0 SWAP1 SLOAD SWAP1 PUSH2 0x100 EXP SWAP1 DIV PUSH1 0xFF AND ISZERO PUSH2 0x73F JUMPI PUSH0 DUP1 REVERT JUMPDEST PUSH1 0x1 DUP2 PUSH1 0x4 ADD PUSH0 CALLER PUSH20 0xFFFFFFFFFFFFFFFFFFFFFFFFFFFFFFFFFFFFFFFF AND PUSH20 0xFFFFFFFFFFFFFFFFFFFFFFFFFFFFFFFFFFFFFFFF AND DUP2 MSTORE PUSH1 0x20 ADD SWAP1 DUP2 MSTORE PUSH1 0x20 ADD PUSH0 KECCAK256 PUSH0 PUSH2 0x100 EXP DUP2 SLOAD DUP2 PUSH1 0xFF MUL NOT AND SWAP1 DUP4 ISZERO ISZERO MUL OR SWAP1 SSTORE POP DUP1 PUSH1 0x3 ADD PUSH0 DUP2 SLOAD DUP1 SWAP3 SWAP2 SWAP1 PUSH2 0x7AA SWAP1 PUSH2 0xF9F JUMP JUMPDEST SWAP2 SWAP1 POP SSTORE POP POP POP JUMP JUMPDEST PUSH0 DUP1 PUSH0 DUP1 PUSH0 PUSH1 0x2 SLOAD SELFBALANCE PUSH0 DUP1 SLOAD SWAP1 POP PUSH1 0x4 SLOAD PUSH1 0x1 PUSH0 SWAP1 SLOAD SWAP1 PUSH2 0x100 EXP SWAP1 DIV PUSH20 0xFFFFFFFFFFFFFFFFFFFFFFFFFFFFFFFFFFFFFFFF AND SWAP5 POP SWAP5 POP SWAP5 POP SWAP5 POP SWAP5 POP SWAP1 SWAP2 SWAP3 SWAP4 SWAP5 JUMP JUMPDEST PUSH0 PUSH1 0x40 MLOAD SWAP1 POP SWAP1 JUMP JUMPDEST PUSH0 DUP1 REVERT JUMPDEST PUSH0 DUP1 REVERT JUMPDEST PUSH0 DUP2 SWAP1 POP SWAP2 SWAP1 POP JUMP JUMPDEST PUSH2 0x81A DUP2 PUSH2 0x808 JUMP JUMPDEST DUP2 EQ PUSH2 0x824 JUMPI PUSH0 DUP1 REVERT JUMPDEST POP JUMP JUMPDEST PUSH0 DUP2 CALLDATALOAD SWAP1 POP PUSH2 0x835 DUP2 PUSH2 0x811 JUMP JUMPDEST SWAP3 SWAP2 POP POP JUMP JUMPDEST PUSH0 PUSH1 0x20 DUP3 DUP5 SUB SLT ISZERO PUSH2 0x850 JUMPI PUSH2 0x84F PUSH2 0x800 JUMP JUMPDEST JUMPDEST PUSH0 PUSH2 0x85D DUP5 DUP3 DUP6 ADD PUSH2 0x827 JUMP JUMPDEST SWAP2 POP POP SWAP3 SWAP2 POP POP JUMP JUMPDEST PUSH0 PUSH20 0xFFFFFFFFFFFFFFFFFFFFFFFFFFFFFFFFFFFFFFFF DUP3 AND SWAP1 POP SWAP2 SWAP1 POP JUMP JUMPDEST PUSH0 PUSH2 0x88F DUP3 PUSH2 0x866 JUMP JUMPDEST SWAP1 POP SWAP2 SWAP1 POP JUMP JUMPDEST PUSH2 0x89F DUP2 PUSH2 0x885 JUMP JUMPDEST DUP2 EQ PUSH2 0x8A9 JUMPI PUSH0 DUP1 REVERT JUMPDEST POP JUMP JUMPDEST PUSH0 DUP2 CALLDATALOAD SWAP1 POP PUSH2 0x8BA DUP2 PUSH2 0x896 JUMP JUMPDEST SWAP3 SWAP2 POP POP JUMP JUMPDEST PUSH0 PUSH1 0x20 DUP3 DUP5 SUB SLT ISZERO PUSH2 0x8D5 JUMPI PUSH2 0x8D4 PUSH2 0x800 JUMP JUMPDEST JUMPDEST PUSH0 PUSH2 0x8E2 DUP5 DUP3 DUP6 ADD PUSH2 0x8AC JUMP JUMPDEST SWAP2 POP POP SWAP3 SWAP2 POP POP JUMP JUMPDEST PUSH0 DUP2 ISZERO ISZERO SWAP1 POP SWAP2 SWAP1 POP JUMP JUMPDEST PUSH2 0x8FF DUP2 PUSH2 0x8EB JUMP JUMPDEST DUP3 MSTORE POP POP JUMP JUMPDEST PUSH0 PUSH1 0x20 DUP3 ADD SWAP1 POP PUSH2 0x918 PUSH0 DUP4 ADD DUP5 PUSH2 0x8F6 JUMP JUMPDEST SWAP3 SWAP2 POP POP JUMP JUMPDEST PUSH2 0x927 DUP2 PUSH2 0x808 JUMP JUMPDEST DUP3 MSTORE POP POP JUMP JUMPDEST PUSH0 PUSH1 0x20 DUP3 ADD SWAP1 POP PUSH2 0x940 PUSH0 DUP4 ADD DUP5 PUSH2 0x91E JUMP JUMPDEST SWAP3 SWAP2 POP POP JUMP JUMPDEST PUSH2 0x94F DUP2 PUSH2 0x885 JUMP JUMPDEST DUP3 MSTORE POP POP JUMP JUMPDEST PUSH0 PUSH1 0x20 DUP3 ADD SWAP1 POP PUSH2 0x968 PUSH0 DUP4 ADD DUP5 PUSH2 0x946 JUMP JUMPDEST SWAP3 SWAP2 POP POP JUMP JUMPDEST PUSH0 DUP2 MLOAD SWAP1 POP SWAP2 SWAP1 POP JUMP JUMPDEST PUSH0 DUP3 DUP3 MSTORE PUSH1 0x20 DUP3 ADD SWAP1 POP SWAP3 SWAP2 POP POP JUMP JUMPDEST DUP3 DUP2 DUP4 MCOPY PUSH0 DUP4 DUP4 ADD MSTORE POP POP POP JUMP JUMPDEST PUSH0 PUSH1 0x1F NOT PUSH1 0x1F DUP4 ADD AND SWAP1 POP SWAP2 SWAP1 POP JUMP JUMPDEST PUSH0 PUSH2 0x9B0 DUP3 PUSH2 0x96E JUMP JUMPDEST PUSH2 0x9BA DUP2 DUP6 PUSH2 0x978 JUMP JUMPDEST SWAP4 POP PUSH2 0x9CA DUP2 DUP6 PUSH1 0x20 DUP7 ADD PUSH2 0x988 JUMP JUMPDEST PUSH2 0x9D3 DUP2 PUSH2 0x996 JUMP JUMPDEST DUP5 ADD SWAP2 POP POP SWAP3 SWAP2 POP POP JUMP JUMPDEST PUSH0 PUSH1 0xA0 DUP3 ADD SWAP1 POP DUP2 DUP2 SUB PUSH0 DUP4 ADD MSTORE PUSH2 0x9F6 DUP2 DUP9 PUSH2 0x9A6 JUMP JUMPDEST SWAP1 POP PUSH2 0xA05 PUSH1 0x20 DUP4 ADD DUP8 PUSH2 0x91E JUMP JUMPDEST PUSH2 0xA12 PUSH1 0x40 DUP4 ADD DUP7 PUSH2 0x946 JUMP JUMPDEST PUSH2 0xA1F PUSH1 0x60 DUP4 ADD DUP6 PUSH2 0x8F6 JUMP JUMPDEST PUSH2 0xA2C PUSH1 0x80 DUP4 ADD DUP5 PUSH2 0x91E JUMP JUMPDEST SWAP7 SWAP6 POP POP POP POP POP POP JUMP JUMPDEST PUSH0 DUP1 REVERT JUMPDEST PUSH0 DUP1 REVERT JUMPDEST PUSH32 0x4E487B7100000000000000000000000000000000000000000000000000000000 PUSH0 MSTORE PUSH1 0x41 PUSH1 0x4 MSTORE PUSH1 0x24 PUSH0 REVERT JUMPDEST PUSH2 0xA74 DUP3 PUSH2 0x996 JUMP JUMPDEST DUP2 ADD DUP2 DUP2 LT PUSH8 0xFFFFFFFFFFFFFFFF DUP3 GT OR ISZERO PUSH2 0xA93 JUMPI PUSH2 0xA92 PUSH2 0xA3E JUMP JUMPDEST JUMPDEST DUP1 PUSH1 0x40 MSTORE POP POP POP JUMP JUMPDEST PUSH0 PUSH2 0xAA5 PUSH2 0x7F7 JUMP JUMPDEST SWAP1 POP PUSH2 0xAB1 DUP3 DUP3 PUSH2 0xA6B JUMP JUMPDEST SWAP2 SWAP1 POP JUMP JUMPDEST PUSH0 PUSH8 0xFFFFFFFFFFFFFFFF DUP3 GT ISZERO PUSH2 0xAD0 JUMPI PUSH2 0xACF PUSH2 0xA3E JUMP JUMPDEST JUMPDEST PUSH2 0xAD9 DUP3 PUSH2 0x996 JUMP JUMPDEST SWAP1 POP PUSH1 0x20 DUP2 ADD SWAP1 POP SWAP2 SWAP1 POP JUMP JUMPDEST DUP3 DUP2 DUP4 CALLDATACOPY PUSH0 DUP4 DUP4 ADD MSTORE POP POP POP JUMP JUMPDEST PUSH0 PUSH2 0xB06 PUSH2 0xB01 DUP5 PUSH2 0xAB6 JUMP JUMPDEST PUSH2 0xA9C JUMP JUMPDEST SWAP1 POP DUP3 DUP2 MSTORE PUSH1 0x20 DUP2 ADD DUP5 DUP5 DUP5 ADD GT ISZERO PUSH2 0xB22 JUMPI PUSH2 0xB21 PUSH2 0xA3A JUMP JUMPDEST JUMPDEST PUSH2 0xB2D DUP5 DUP3 DUP6 PUSH2 0xAE6 JUMP JUMPDEST POP SWAP4 SWAP3 POP POP POP JUMP JUMPDEST PUSH0 DUP3 PUSH1 0x1F DUP4 ADD SLT PUSH2 0xB49 JUMPI PUSH2 0xB48 PUSH2 0xA36 JUMP JUMPDEST JUMPDEST DUP2 CALLDATALOAD PUSH2 0xB59 DUP5 DUP3 PUSH1 0x20 DUP7 ADD PUSH2 0xAF4 JUMP JUMPDEST SWAP2 POP POP SWAP3 SWAP2 POP POP JUMP JUMPDEST PUSH0 DUP1 PUSH0 PUSH1 0x60 DUP5 DUP7 SUB SLT ISZERO PUSH2 0xB79 JUMPI PUSH2 0xB78 PUSH2 0x800 JUMP JUMPDEST JUMPDEST PUSH0 DUP5 ADD CALLDATALOAD PUSH8 0xFFFFFFFFFFFFFFFF DUP2 GT ISZERO PUSH2 0xB96 JUMPI PUSH2 0xB95 PUSH2 0x804 JUMP JUMPDEST JUMPDEST PUSH2 0xBA2 DUP7 DUP3 DUP8 ADD PUSH2 0xB35 JUMP JUMPDEST SWAP4 POP POP PUSH1 0x20 PUSH2 0xBB3 DUP7 DUP3 DUP8 ADD PUSH2 0x827 JUMP JUMPDEST SWAP3 POP POP PUSH1 0x40 PUSH2 0xBC4 DUP7 DUP3 DUP8 ADD PUSH2 0x8AC JUMP JUMPDEST SWAP2 POP POP SWAP3 POP SWAP3 POP SWAP3 JUMP JUMPDEST PUSH0 PUSH1 0xA0 DUP3 ADD SWAP1 POP PUSH2 0xBE1 PUSH0 DUP4 ADD DUP9 PUSH2 0x91E JUMP JUMPDEST PUSH2 0xBEE PUSH1 0x20 DUP4 ADD DUP8 PUSH2 0x91E JUMP JUMPDEST PUSH2 0xBFB PUSH1 0x40 DUP4 ADD DUP7 PUSH2 0x91E JUMP JUMPDEST PUSH2 0xC08 PUSH1 0x60 DUP4 ADD DUP6 PUSH2 0x91E JUMP JUMPDEST PUSH2 0xC15 PUSH1 0x80 DUP4 ADD DUP5 PUSH2 0x946 JUMP JUMPDEST SWAP7 SWAP6 POP POP POP POP POP POP JUMP JUMPDEST PUSH32 0x4E487B7100000000000000000000000000000000000000000000000000000000 PUSH0 MSTORE PUSH1 0x32 PUSH1 0x4 MSTORE PUSH1 0x24 PUSH0 REVERT JUMPDEST PUSH32 0x4E487B7100000000000000000000000000000000000000000000000000000000 PUSH0 MSTORE PUSH1 0x12 PUSH1 0x4 MSTORE PUSH1 0x24 PUSH0 REVERT JUMPDEST PUSH32 0x4E487B7100000000000000000000000000000000000000000000000000000000 PUSH0 MSTORE PUSH1 0x11 PUSH1 0x4 MSTORE PUSH1 0x24 PUSH0 REVERT JUMPDEST PUSH0 PUSH2 0xCB0 DUP3 PUSH2 0x808 JUMP JUMPDEST SWAP2 POP PUSH2 0xCBB DUP4 PUSH2 0x808 JUMP JUMPDEST SWAP3 POP DUP3 PUSH2 0xCCB JUMPI PUSH2 0xCCA PUSH2 0xC4C JUMP JUMPDEST JUMPDEST DUP3 DUP3 DIV SWAP1 POP SWAP3 SWAP2 POP POP JUMP JUMPDEST PUSH32 0x4E487B7100000000000000000000000000000000000000000000000000000000 PUSH0 MSTORE PUSH1 0x22 PUSH1 0x4 MSTORE PUSH1 0x24 PUSH0 REVERT JUMPDEST PUSH0 PUSH1 0x2 DUP3 DIV SWAP1 POP PUSH1 0x1 DUP3 AND DUP1 PUSH2 0xD1A JUMPI PUSH1 0x7F DUP3 AND SWAP2 POP JUMPDEST PUSH1 0x20 DUP3 LT DUP2 SUB PUSH2 0xD2D JUMPI PUSH2 0xD2C PUSH2 0xCD6 JUMP JUMPDEST JUMPDEST POP SWAP2 SWAP1 POP JUMP JUMPDEST PUSH0 DUP2 SWAP1 POP DUP2 PUSH0 MSTORE PUSH1 0x20 PUSH0 KECCAK256 SWAP1 POP SWAP2 SWAP1 POP JUMP JUMPDEST PUSH0 PUSH1 0x20 PUSH1 0x1F DUP4 ADD DIV SWAP1 POP SWAP2 SWAP1 POP JUMP JUMPDEST PUSH0 DUP3 DUP3 SHL SWAP1 POP SWAP3 SWAP2 POP POP JUMP JUMPDEST PUSH0 PUSH1 0x8 DUP4 MUL PUSH2 0xD8F PUSH32 0xFFFFFFFFFFFFFFFFFFFFFFFFFFFFFFFFFFFFFFFFFFFFFFFFFFFFFFFFFFFFFFFF DUP3 PUSH2 0xD54 JUMP JUMPDEST PUSH2 0xD99 DUP7 DUP4 PUSH2 0xD54 JUMP JUMPDEST SWAP6 POP DUP1 NOT DUP5 AND SWAP4 POP DUP1 DUP7 AND DUP5 OR SWAP3 POP POP POP SWAP4 SWAP3 POP POP POP JUMP JUMPDEST PUSH0 DUP2 SWAP1 POP SWAP2 SWAP1 POP JUMP JUMPDEST PUSH0 PUSH2 0xDD4 PUSH2 0xDCF PUSH2 0xDCA DUP5 PUSH2 0x808 JUMP JUMPDEST PUSH2 0xDB1 JUMP JUMPDEST PUSH2 0x808 JUMP JUMPDEST SWAP1 POP SWAP2 SWAP1 POP JUMP JUMPDEST PUSH0 DUP2 SWAP1 POP SWAP2 SWAP1 POP JUMP JUMPDEST PUSH2 0xDED DUP4 PUSH2 0xDBA JUMP JUMPDEST PUSH2 0xE01 PUSH2 0xDF9 DUP3 PUSH2 0xDDB JUMP JUMPDEST DUP5 DUP5 SLOAD PUSH2 0xD60 JUMP JUMPDEST DUP3 SSTORE POP POP POP POP JUMP JUMPDEST PUSH0 SWAP1 JUMP JUMPDEST PUSH2 0xE15 PUSH2 0xE09 JUMP JUMPDEST PUSH2 0xE20 DUP2 DUP5 DUP5 PUSH2 0xDE4 JUMP JUMPDEST POP POP POP JUMP JUMPDEST JUMPDEST DUP2 DUP2 LT ISZERO PUSH2 0xE43 JUMPI PUSH2 0xE38 PUSH0 DUP3 PUSH2 0xE0D JUMP JUMPDEST PUSH1 0x1 DUP2 ADD SWAP1 POP PUSH2 0xE26 JUMP JUMPDEST POP POP JUMP JUMPDEST PUSH1 0x1F DUP3 GT ISZERO PUSH2 0xE88 JUMPI PUSH2 0xE59 DUP2 PUSH2 0xD33 JUMP JUMPDEST PUSH2 0xE62 DUP5 PUSH2 0xD45 JUMP JUMPDEST DUP2 ADD PUSH1 0x20 DUP6 LT ISZERO PUSH2 0xE71 JUMPI DUP2 SWAP1 POP JUMPDEST PUSH2 0xE85 PUSH2 0xE7D DUP6 PUSH2 0xD45 JUMP JUMPDEST DUP4 ADD DUP3 PUSH2 0xE25 JUMP JUMPDEST POP POP JUMPDEST POP POP POP JUMP JUMPDEST PUSH0 DUP3 DUP3 SHR SWAP1 POP SWAP3 SWAP2 POP POP JUMP JUMPDEST PUSH0 PUSH2 0xEA8 PUSH0 NOT DUP5 PUSH1 0x8 MUL PUSH2 0xE8D JUMP JUMPDEST NOT DUP1 DUP4 AND SWAP2 POP POP SWAP3 SWAP2 POP POP JUMP JUMPDEST PUSH0 PUSH2 0xEC0 DUP4 DUP4 PUSH2 0xE99 JUMP JUMPDEST SWAP2 POP DUP3 PUSH1 0x2 MUL DUP3 OR SWAP1 POP SWAP3 SWAP2 POP POP JUMP JUMPDEST PUSH2 0xED9 DUP3 PUSH2 0x96E JUMP JUMPDEST PUSH8 0xFFFFFFFFFFFFFFFF DUP2 GT ISZERO PUSH2 0xEF2 JUMPI PUSH2 0xEF1 PUSH2 0xA3E JUMP JUMPDEST JUMPDEST PUSH2 0xEFC DUP3 SLOAD PUSH2 0xD03 JUMP JUMPDEST PUSH2 0xF07 DUP3 DUP3 DUP6 PUSH2 0xE47 JUMP JUMPDEST PUSH0 PUSH1 0x20 SWAP1 POP PUSH1 0x1F DUP4 GT PUSH1 0x1 DUP2 EQ PUSH2 0xF38 JUMPI PUSH0 DUP5 ISZERO PUSH2 0xF26 JUMPI DUP3 DUP8 ADD MLOAD SWAP1 POP JUMPDEST PUSH2 0xF30 DUP6 DUP3 PUSH2 0xEB5 JUMP JUMPDEST DUP7 SSTORE POP PUSH2 0xF97 JUMP JUMPDEST PUSH1 0x1F NOT DUP5 AND PUSH2 0xF46 DUP7 PUSH2 0xD33 JUMP JUMPDEST PUSH0 JUMPDEST DUP3 DUP2 LT ISZERO PUSH2 0xF6D JUMPI DUP5 DUP10 ADD MLOAD DUP3 SSTORE PUSH1 0x1 DUP3 ADD SWAP2 POP PUSH1 0x20 DUP6 ADD SWAP5 POP PUSH1 0x20 DUP2 ADD SWAP1 POP PUSH2 0xF48 JUMP JUMPDEST DUP7 DUP4 LT ISZERO PUSH2 0xF8A JUMPI DUP5 DUP10 ADD MLOAD PUSH2 0xF86 PUSH1 0x1F DUP10 AND DUP3 PUSH2 0xE99 JUMP JUMPDEST DUP4 SSTORE POP JUMPDEST PUSH1 0x1 PUSH1 0x2 DUP9 MUL ADD DUP9 SSTORE POP POP POP JUMPDEST POP POP POP POP POP POP JUMP JUMPDEST PUSH0 PUSH2 0xFA9 DUP3 PUSH2 0x808 JUMP JUMPDEST SWAP2 POP PUSH32 0xFFFFFFFFFFFFFFFFFFFFFFFFFFFFFFFFFFFFFFFFFFFFFFFFFFFFFFFFFFFFFFFF DUP3 SUB PUSH2 0xFDB JUMPI PUSH2 0xFDA PUSH2 0xC79 JUMP JUMPDEST JUMPDEST PUSH1 0x1 DUP3 ADD SWAP1 POP SWAP2 SWAP1 POP JUMP INVALID LOG2 PUSH5 0x6970667358 0x22 SLT KECCAK256 DUP4 JUMPI PUSH21 0xF009C295860D1DF4ACC47AA562589F8A87E6FCFD15 SHR DUP7 0xDF 0xB2 XOR MULMOD 0xBB SSTORE PUSH5 0x736F6C6343 STOP ADDMOD BYTE STOP CALLER "},"gasEstimates":{"creation":{"codeDepositCost":"824800","executionCost":"infinite","totalCost":"infinite"},"external":{"approveRequest(uint256)":"infinite","approvers(address)":"2856","approversCount()":"2425","contribute()":"51014","createRequest(string,uint256,address)":"infinite","finalizeRequest(uint256)":"infinite","getRequestsCount()":"2485","getSummery()":"infinite","manager()":"2575","minimumContribution()":"2469","requests(uint256)":"infinite"}},"methodIdentifiers":{"approveRequest(uint256)":"d7d1bbdb","approvers(address)":"0a144391","approversCount()":"82fde093","contribute()":"d7bb99ba","createRequest(string,uint256,address)":"8a9cfd55","finalizeRequest(uint256)":"03441006","getRequestsCount()":"3410452a","getSummery()":"f146b3d0","manager()":"481c6a75","minimumContribution()":"937e09b1","requests(uint256)":"81d12c58"}},"storageLayout":{"storage":[{"astId":61,"contract":"Campaign.sol:Campaign","label":"requests","offset":0,"slot":"0","type":"t_array(t_struct(Request)57_storage)dyn_storage"},{"astId":63,"contract":"Campaign.sol:Campaign","label":"manager","offset":0,"slot":"1","type":"t_address"},{"astId":65,"contract":"Campaign.sol:Campaign","label":"minimumContribution","offset":0,"slot":"2","type":"t_uint256"},{"astId":69,"contract":"Campaign.sol:Campaign","label":"approvers","offset":0,"slot":"3","type":"t_mapping(t_address,t_bool)"},{"astId":71,"contract":"Campaign.sol:Campaign","label":"approversCount","offset":0,"slot":"4","type":"t_uint256"}],"types":{"t_address":{"encoding":"inplace","label":"address","numberOfBytes":"20"},"t_array(t_struct(Request)57_storage)dyn_storage":{"base":"t_struct(Request)57_storage","encoding":"dynamic_array","label":"struct Campaign.Request[]","numberOfBytes":"32"},"t_bool":{"encoding":"inplace","label":"bool","numberOfBytes":"1"},"t_mapping(t_address,t_bool)":{"encoding":"mapping","key":"t_address","label":"mapping(address => bool)","numberOfBytes":"32","value":"t_bool"},"t_string_storage":{"encoding":"bytes","label":"string","numberOfBytes":"32"},"t_struct(Request)57_storage":{"encoding":"inplace","label":"struct Campaign.Request","members":[{"astId":44,"contract":"Campaign.sol:Campaign","label":"description","offset":0,"slot":"0","type":"t_string_storage"},{"astId":46,"contract":"Campaign.sol:Campaign","label":"value","offset":0,"slot":"1","type":"t_uint256"},{"astId":48,"contract":"Campaign.sol:Campaign","label":"recipient","offset":0,"slot":"2","type":"t_address"},{"astId":50,"contract":"Campaign.sol:Campaign","label":"complete","offset":20,"slot":"2","type":"t_bool"},{"astId":52,"contract":"Campaign.sol:Campaign","label":"approvalCount","offset":0,"slot":"3","type":"t_uint256"},{"astId":56,"contract":"Campaign.sol:Campaign","label":"approvals","offset":0,"slot":"4","type":"t_mapping(t_address,t_bool)"}],"numberOfBytes":"160"},"t_uint256":{"encoding":"inplace","label":"uint256","numberOfBytes":"32"}}},"userdoc":{"kind":"user","methods":{},"version":1}}